{
  "contracts/ERC20Mintable.sol": {
    "ERC20Mintable": {
      "abi": [
        {
          "inputs": [
            {
              "internalType": "string",
              "name": "name_",
              "type": "string"
            },
            {
              "internalType": "string",
              "name": "symbol_",
              "type": "string"
            },
            {
              "internalType": "uint8",
              "name": "decimals_",
              "type": "uint8"
            }
          ],
          "stateMutability": "nonpayable",
          "type": "constructor"
        },
        {
          "anonymous": false,
          "inputs": [
            {
              "indexed": true,
              "internalType": "address",
              "name": "owner",
              "type": "address"
            },
            {
              "indexed": true,
              "internalType": "address",
              "name": "spender",
              "type": "address"
            },
            {
              "indexed": false,
              "internalType": "uint256",
              "name": "value",
              "type": "uint256"
            }
          ],
          "name": "Approval",
          "type": "event"
        },
        {
          "anonymous": false,
          "inputs": [
            {
              "indexed": true,
              "internalType": "address",
              "name": "account",
              "type": "address"
            },
            {
              "indexed": true,
              "internalType": "address",
              "name": "receiver",
              "type": "address"
            },
            {
              "indexed": false,
              "internalType": "uint256",
              "name": "amount",
              "type": "uint256"
            }
          ],
          "name": "Mint",
          "type": "event"
        },
        {
          "anonymous": false,
          "inputs": [
            {
              "indexed": true,
              "internalType": "address",
              "name": "previousOwner",
              "type": "address"
            },
            {
              "indexed": true,
              "internalType": "address",
              "name": "newOwner",
              "type": "address"
            }
          ],
          "name": "OwnershipTransferred",
          "type": "event"
        },
        {
          "anonymous": false,
          "inputs": [
            {
              "indexed": true,
              "internalType": "address",
              "name": "account",
              "type": "address"
            }
          ],
          "name": "Paused",
          "type": "event"
        },
        {
          "anonymous": false,
          "inputs": [
            {
              "indexed": true,
              "internalType": "address",
              "name": "from",
              "type": "address"
            },
            {
              "indexed": true,
              "internalType": "address",
              "name": "to",
              "type": "address"
            },
            {
              "indexed": false,
              "internalType": "uint256",
              "name": "value",
              "type": "uint256"
            }
          ],
          "name": "Transfer",
          "type": "event"
        },
        {
          "anonymous": false,
          "inputs": [
            {
              "indexed": true,
              "internalType": "address",
              "name": "account",
              "type": "address"
            }
          ],
          "name": "UnPaused",
          "type": "event"
        },
        {
          "inputs": [
            {
              "internalType": "address",
              "name": "owner",
              "type": "address"
            },
            {
              "internalType": "address",
              "name": "spender",
              "type": "address"
            }
          ],
          "name": "allowance",
          "outputs": [
            {
              "internalType": "uint256",
              "name": "",
              "type": "uint256"
            }
          ],
          "stateMutability": "view",
          "type": "function"
        },
        {
          "inputs": [
            {
              "internalType": "address",
              "name": "spender",
              "type": "address"
            },
            {
              "internalType": "uint256",
              "name": "amount",
              "type": "uint256"
            }
          ],
          "name": "approve",
          "outputs": [
            {
              "internalType": "bool",
              "name": "",
              "type": "bool"
            }
          ],
          "stateMutability": "nonpayable",
          "type": "function"
        },
        {
          "inputs": [
            {
              "internalType": "address",
              "name": "account",
              "type": "address"
            }
          ],
          "name": "balanceOf",
          "outputs": [
            {
              "internalType": "uint256",
              "name": "",
              "type": "uint256"
            }
          ],
          "stateMutability": "view",
          "type": "function"
        },
        {
          "inputs": [],
          "name": "decimals",
          "outputs": [
            {
              "internalType": "uint8",
              "name": "",
              "type": "uint8"
            }
          ],
          "stateMutability": "view",
          "type": "function"
        },
        {
          "inputs": [
            {
              "internalType": "address",
              "name": "account",
              "type": "address"
            },
            {
              "internalType": "uint256",
              "name": "amount",
              "type": "uint256"
            }
          ],
          "name": "mint",
          "outputs": [],
          "stateMutability": "nonpayable",
          "type": "function"
        },
        {
          "inputs": [],
          "name": "name",
          "outputs": [
            {
              "internalType": "string",
              "name": "",
              "type": "string"
            }
          ],
          "stateMutability": "view",
          "type": "function"
        },
        {
          "inputs": [],
          "name": "owner",
          "outputs": [
            {
              "internalType": "address",
              "name": "",
              "type": "address"
            }
          ],
          "stateMutability": "view",
          "type": "function"
        },
        {
          "inputs": [],
          "name": "pause",
          "outputs": [],
          "stateMutability": "nonpayable",
          "type": "function"
        },
        {
          "inputs": [],
          "name": "paused",
          "outputs": [
            {
              "internalType": "bool",
              "name": "",
              "type": "bool"
            }
          ],
          "stateMutability": "view",
          "type": "function"
        },
        {
          "inputs": [],
          "name": "symbol",
          "outputs": [
            {
              "internalType": "string",
              "name": "",
              "type": "string"
            }
          ],
          "stateMutability": "view",
          "type": "function"
        },
        {
          "inputs": [],
          "name": "totalSupply",
          "outputs": [
            {
              "internalType": "uint256",
              "name": "",
              "type": "uint256"
            }
          ],
          "stateMutability": "view",
          "type": "function"
        },
        {
          "inputs": [
            {
              "internalType": "address",
              "name": "to",
              "type": "address"
            },
            {
              "internalType": "uint256",
              "name": "amount",
              "type": "uint256"
            }
          ],
          "name": "transfer",
          "outputs": [
            {
              "internalType": "bool",
              "name": "",
              "type": "bool"
            }
          ],
          "stateMutability": "nonpayable",
          "type": "function"
        },
        {
          "inputs": [
            {
              "internalType": "address",
              "name": "from",
              "type": "address"
            },
            {
              "internalType": "address",
              "name": "to",
              "type": "address"
            },
            {
              "internalType": "uint256",
              "name": "amount",
              "type": "uint256"
            }
          ],
          "name": "transferFrom",
          "outputs": [
            {
              "internalType": "bool",
              "name": "",
              "type": "bool"
            }
          ],
          "stateMutability": "nonpayable",
          "type": "function"
        },
        {
          "inputs": [
            {
              "internalType": "address",
              "name": "newOwner",
              "type": "address"
            }
          ],
          "name": "transferOwnership",
          "outputs": [],
          "stateMutability": "nonpayable",
          "type": "function"
        },
        {
          "inputs": [],
          "name": "unPause",
          "outputs": [],
          "stateMutability": "nonpayable",
          "type": "function"
        }
      ],
      "devdoc": {
        "kind": "dev",
        "methods": {
          "allowance(address,address)": {
            "details": "Returns the remaining number of tokens that `spender` will be allowed to spend on behalf of `owner` through {transferFrom}. This is zero by default. This value changes when {approve} or {transferFrom} are called."
          },
          "approve(address,uint256)": {
            "details": "Sets `amount` as the allowance of `spender` over the caller's tokens. Returns a boolean value indicating whether the operation succeeded. IMPORTANT: Beware that changing an allowance with this method brings the risk that someone may use both the old and the new allowance by unfortunate transaction ordering. One possible solution to mitigate this race condition is to first reduce the spender's allowance to 0 and set the desired value afterwards: https://github.com/ethereum/EIPs/issues/20#issuecomment-263524729 Emits an {Approval} event."
          },
          "balanceOf(address)": {
            "details": "Returns the amount of tokens owned by `account`."
          },
          "totalSupply()": {
            "details": "Returns the amount of tokens in existence."
          },
          "transfer(address,uint256)": {
            "details": "Moves `amount` tokens from the caller's account to `to`. Returns a boolean value indicating whether the operation succeeded. Emits a {Transfer} event."
          },
          "transferFrom(address,address,uint256)": {
            "details": "Moves `amount` tokens from `from` to `to` using the allowance mechanism. `amount` is then deducted from the caller's allowance. Returns a boolean value indicating whether the operation succeeded. Emits a {Transfer} event."
          }
        },
        "version": 1
      },
      "evm": {
        "bytecode": {
          "linkReferences": {},
          "object": "60806040523480156200001157600080fd5b506040516200221a3803806200221a83398181016040528101906200003791906200036b565b828282828282828282826001908051906020019062000058929190620000e0565b50816002908051906020019062000071929190620000e0565b5080600360006101000a81548160ff021916908360ff16021790555050505050505033600660006101000a81548173ffffffffffffffffffffffffffffffffffffffff021916908373ffffffffffffffffffffffffffffffffffffffff1602179055505050505050506200046a565b828054620000ee9062000434565b90600052602060002090601f0160209004810192826200011257600085556200015e565b82601f106200012d57805160ff19168380011785556200015e565b828001600101855582156200015e579182015b828111156200015d57825182559160200191906001019062000140565b5b5090506200016d919062000171565b5090565b5b808211156200018c57600081600090555060010162000172565b5090565b6000604051905090565b600080fd5b600080fd5b600080fd5b600080fd5b6000601f19601f8301169050919050565b7f4e487b7100000000000000000000000000000000000000000000000000000000600052604160045260246000fd5b620001f982620001ae565b810181811067ffffffffffffffff821117156200021b576200021a620001bf565b5b80604052505050565b60006200023062000190565b90506200023e8282620001ee565b919050565b600067ffffffffffffffff821115620002615762000260620001bf565b5b6200026c82620001ae565b9050602081019050919050565b60005b83811015620002995780820151818401526020810190506200027c565b83811115620002a9576000848401525b50505050565b6000620002c6620002c08462000243565b62000224565b905082815260208101848484011115620002e557620002e4620001a9565b5b620002f284828562000279565b509392505050565b600082601f830112620003125762000311620001a4565b5b815162000324848260208601620002af565b91505092915050565b600060ff82169050919050565b62000345816200032d565b81146200035157600080fd5b50565b60008151905062000365816200033a565b92915050565b6000806000606084860312156200038757620003866200019a565b5b600084015167ffffffffffffffff811115620003a857620003a76200019f565b5b620003b686828701620002fa565b935050602084015167ffffffffffffffff811115620003da57620003d96200019f565b5b620003e886828701620002fa565b9250506040620003fb8682870162000354565b9150509250925092565b7f4e487b7100000000000000000000000000000000000000000000000000000000600052602260045260246000fd5b600060028204905060018216806200044d57607f821691505b6020821081141562000464576200046362000405565b5b50919050565b611da0806200047a6000396000f3fe608060405234801561001057600080fd5b50600436106100f55760003560e01c806370a0823111610097578063a9059cbb11610066578063a9059cbb14610264578063dd62ed3e14610294578063f2fde38b146102c4578063f7b188a5146102e0576100f5565b806370a08231146101ee5780638456cb591461021e5780638da5cb5b1461022857806395d89b4114610246576100f5565b806323b872dd116100d357806323b872dd14610166578063313ce5671461019657806340c10f19146101b45780635c975abb146101d0576100f5565b806306fdde03146100fa578063095ea7b31461011857806318160ddd14610148575b600080fd5b6101026102ea565b60405161010f91906113a0565b60405180910390f35b610132600480360381019061012d919061145b565b61037c565b60405161013f91906114b6565b60405180910390f35b61015061058f565b60405161015d91906114e0565b60405180910390f35b610180600480360381019061017b91906114fb565b610598565b60405161018d91906114b6565b60405180910390f35b61019e610702565b6040516101ab919061156a565b60405180910390f35b6101ce60048036038101906101c9919061145b565b610719565b005b6101d861081c565b6040516101e591906114b6565b60405180910390f35b61020860048036038101906102039190611585565b610833565b60405161021591906114e0565b60405180910390f35b61022661087c565b005b61023061096c565b60405161023d91906115c1565b60405180910390f35b61024e610996565b60405161025b91906113a0565b60405180910390f35b61027e6004803603810190610279919061145b565b610a28565b60405161028b91906114b6565b60405180910390f35b6102ae60048036038101906102a991906115dc565b610a3f565b6040516102bb91906114e0565b60405180910390f35b6102de60048036038101906102d99190611585565b610ac6565b005b6102e8610c8c565b005b6060600180546102f99061164b565b80601f01602080910402602001604051908101604052809291908181526020018280546103259061164b565b80156103725780601f1061034757610100808354040283529160200191610372565b820191906000526020600020905b81548152906001019060200180831161035557829003601f168201915b5050505050905090565b60008073ffffffffffffffffffffffffffffffffffffffff168373ffffffffffffffffffffffffffffffffffffffff1614156103ed576040517f08c379a00000000000000000000000000000000000000000000000000000000081526004016103e4906116c9565b60405180910390fd5b3373ffffffffffffffffffffffffffffffffffffffff168373ffffffffffffffffffffffffffffffffffffffff16141561045c576040517f08c379a000000000000000000000000000000000000000000000000000000000815260040161045390611735565b60405180910390fd5b6000821161049f576040517f08c379a0000000000000000000000000000000000000000000000000000000008152600401610496906117a1565b60405180910390fd5b81600560003373ffffffffffffffffffffffffffffffffffffffff1673ffffffffffffffffffffffffffffffffffffffff16815260200190815260200160002060008573ffffffffffffffffffffffffffffffffffffffff1673ffffffffffffffffffffffffffffffffffffffff168152602001908152602001600020819055508273ffffffffffffffffffffffffffffffffffffffff163373ffffffffffffffffffffffffffffffffffffffff167f8c5be1e5ebec7d5bd14f71427d1e84f3dd0314c0f7b2291e5b200ac8c7c3b9258460405161057d91906114e0565b60405180910390a36001905092915050565b60008054905090565b600081600560008673ffffffffffffffffffffffffffffffffffffffff1673ffffffffffffffffffffffffffffffffffffffff16815260200190815260200160002060003373ffffffffffffffffffffffffffffffffffffffff1673ffffffffffffffffffffffffffffffffffffffff168152602001908152602001600020541015610659576040517f08c379a00000000000000000000000000000000000000000000000000000000081526004016106509061180d565b60405180910390fd5b81600560008673ffffffffffffffffffffffffffffffffffffffff1673ffffffffffffffffffffffffffffffffffffffff16815260200190815260200160002060003373ffffffffffffffffffffffffffffffffffffffff1673ffffffffffffffffffffffffffffffffffffffff16815260200190815260200160002060008282546106e5919061185c565b925050819055506106f7848484610d7c565b600190509392505050565b6000600360009054906101000a900460ff16905090565b3373ffffffffffffffffffffffffffffffffffffffff16600660009054906101000a900473ffffffffffffffffffffffffffffffffffffffff1673ffffffffffffffffffffffffffffffffffffffff16146107a9576040517f08c379a00000000000000000000000000000000000000000000000000000000081526004016107a090611902565b60405180910390fd5b6107b38282610da2565b8173ffffffffffffffffffffffffffffffffffffffff163373ffffffffffffffffffffffffffffffffffffffff167fab8530f87dc9b59234c4623bf917212bb2536d647574c8e7e5da92c2ede0c9f88360405161081091906114e0565b60405180910390a35050565b6000600660149054906101000a900460ff16905090565b6000600460008373ffffffffffffffffffffffffffffffffffffffff1673ffffffffffffffffffffffffffffffffffffffff168152602001908152602001600020549050919050565b3373ffffffffffffffffffffffffffffffffffffffff16600660009054906101000a900473ffffffffffffffffffffffffffffffffffffffff1673ffffffffffffffffffffffffffffffffffffffff161461090c576040517f08c379a000000000000000000000000000000000000000000000000000000000815260040161090390611902565b60405180910390fd5b6001600660146101000a81548160ff0219169083151502179055503373ffffffffffffffffffffffffffffffffffffffff167f62e78cea01bee320cd4e420270b5ea74000d11b0c9f74754ebdbfc544b05a25860405160405180910390a2565b6000600660009054906101000a900473ffffffffffffffffffffffffffffffffffffffff16905090565b6060600280546109a59061164b565b80601f01602080910402602001604051908101604052809291908181526020018280546109d19061164b565b8015610a1e5780601f106109f357610100808354040283529160200191610a1e565b820191906000526020600020905b815481529060010190602001808311610a0157829003601f168201915b5050505050905090565b6000610a35338484610d7c565b6001905092915050565b6000600560008473ffffffffffffffffffffffffffffffffffffffff1673ffffffffffffffffffffffffffffffffffffffff16815260200190815260200160002060008373ffffffffffffffffffffffffffffffffffffffff1673ffffffffffffffffffffffffffffffffffffffff16815260200190815260200160002054905092915050565b3373ffffffffffffffffffffffffffffffffffffffff16600660009054906101000a900473ffffffffffffffffffffffffffffffffffffffff1673ffffffffffffffffffffffffffffffffffffffff1614610b56576040517f08c379a0000000000000000000000000000000000000000000000000000000008152600401610b4d90611902565b60405180910390fd5b600073ffffffffffffffffffffffffffffffffffffffff168173ffffffffffffffffffffffffffffffffffffffff161415610bc6576040517f08c379a0000000000000000000000000000000000000000000000000000000008152600401610bbd90611994565b60405180910390fd5b6000600660009054906101000a900473ffffffffffffffffffffffffffffffffffffffff16905081600660006101000a81548173ffffffffffffffffffffffffffffffffffffffff021916908373ffffffffffffffffffffffffffffffffffffffff1602179055508173ffffffffffffffffffffffffffffffffffffffff168173ffffffffffffffffffffffffffffffffffffffff167f8be0079c531659141344cd1fd0a4f28419497f9722a3daafe3b4186f6b6457e060405160405180910390a35050565b3373ffffffffffffffffffffffffffffffffffffffff16600660009054906101000a900473ffffffffffffffffffffffffffffffffffffffff1673ffffffffffffffffffffffffffffffffffffffff1614610d1c576040517f08c379a0000000000000000000000000000000000000000000000000000000008152600401610d1390611902565b60405180910390fd5b6000600660146101000a81548160ff0219169083151502179055503373ffffffffffffffffffffffffffffffffffffffff167fff2b959f2bcdb44c7ecb4b16dae055431019d7350607125cfc2b74a06632c90e60405160405180910390a2565b610d87838383610dc8565b610d92838383610e15565b610d9d838383611177565b505050565b610dae60008383610dc8565b610db8828261117c565b610dc460008383611177565b5050565b610dd061081c565b15610e10576040517f08c379a0000000000000000000000000000000000000000000000000000000008152600401610e0790611a00565b60405180910390fd5b505050565b600073ffffffffffffffffffffffffffffffffffffffff168373ffffffffffffffffffffffffffffffffffffffff161415610e85576040517f08c379a0000000000000000000000000000000000000000000000000000000008152600401610e7c90611a6c565b60405180910390fd5b600073ffffffffffffffffffffffffffffffffffffffff168273ffffffffffffffffffffffffffffffffffffffff161415610ef5576040517f08c379a0000000000000000000000000000000000000000000000000000000008152600401610eec90611ad8565b60405180910390fd5b8173ffffffffffffffffffffffffffffffffffffffff168373ffffffffffffffffffffffffffffffffffffffff161415610f64576040517f08c379a0000000000000000000000000000000000000000000000000000000008152600401610f5b90611b44565b60405180910390fd5b60008111610fa7576040517f08c379a0000000000000000000000000000000000000000000000000000000008152600401610f9e90611bb0565b60405180910390fd5b80600460008573ffffffffffffffffffffffffffffffffffffffff1673ffffffffffffffffffffffffffffffffffffffff168152602001908152602001600020541015611029576040517f08c379a000000000000000000000000000000000000000000000000000000000815260040161102090611c1c565b60405180910390fd5b80600460008573ffffffffffffffffffffffffffffffffffffffff1673ffffffffffffffffffffffffffffffffffffffff16815260200190815260200160002054611074919061185c565b600460008573ffffffffffffffffffffffffffffffffffffffff1673ffffffffffffffffffffffffffffffffffffffff1681526020019081526020016000208190555080600460008473ffffffffffffffffffffffffffffffffffffffff1673ffffffffffffffffffffffffffffffffffffffff16815260200190815260200160002060008282546111069190611c3c565b925050819055508173ffffffffffffffffffffffffffffffffffffffff168373ffffffffffffffffffffffffffffffffffffffff167fddf252ad1be2c89b69c2b068fc378daa952ba7f163c4a11628f55a4df523b3ef8360405161116a91906114e0565b60405180910390a3505050565b505050565b600073ffffffffffffffffffffffffffffffffffffffff168273ffffffffffffffffffffffffffffffffffffffff1614156111ec576040517f08c379a00000000000000000000000000000000000000000000000000000000081526004016111e390611cde565b60405180910390fd5b6000811161122f576040517f08c379a000000000000000000000000000000000000000000000000000000000815260040161122690611d4a565b60405180910390fd5b806000808282546112409190611c3c565b9250508190555080600460008473ffffffffffffffffffffffffffffffffffffffff1673ffffffffffffffffffffffffffffffffffffffff16815260200190815260200160002060008282546112969190611c3c565b925050819055508173ffffffffffffffffffffffffffffffffffffffff16600073ffffffffffffffffffffffffffffffffffffffff167fddf252ad1be2c89b69c2b068fc378daa952ba7f163c4a11628f55a4df523b3ef836040516112fb91906114e0565b60405180910390a35050565b600081519050919050565b600082825260208201905092915050565b60005b83811015611341578082015181840152602081019050611326565b83811115611350576000848401525b50505050565b6000601f19601f8301169050919050565b600061137282611307565b61137c8185611312565b935061138c818560208601611323565b61139581611356565b840191505092915050565b600060208201905081810360008301526113ba8184611367565b905092915050565b600080fd5b600073ffffffffffffffffffffffffffffffffffffffff82169050919050565b60006113f2826113c7565b9050919050565b611402816113e7565b811461140d57600080fd5b50565b60008135905061141f816113f9565b92915050565b6000819050919050565b61143881611425565b811461144357600080fd5b50565b6000813590506114558161142f565b92915050565b60008060408385031215611472576114716113c2565b5b600061148085828601611410565b925050602061149185828601611446565b9150509250929050565b60008115159050919050565b6114b08161149b565b82525050565b60006020820190506114cb60008301846114a7565b92915050565b6114da81611425565b82525050565b60006020820190506114f560008301846114d1565b92915050565b600080600060608486031215611514576115136113c2565b5b600061152286828701611410565b935050602061153386828701611410565b925050604061154486828701611446565b9150509250925092565b600060ff82169050919050565b6115648161154e565b82525050565b600060208201905061157f600083018461155b565b92915050565b60006020828403121561159b5761159a6113c2565b5b60006115a984828501611410565b91505092915050565b6115bb816113e7565b82525050565b60006020820190506115d660008301846115b2565b92915050565b600080604083850312156115f3576115f26113c2565b5b600061160185828601611410565b925050602061161285828601611410565b9150509250929050565b7f4e487b7100000000000000000000000000000000000000000000000000000000600052602260045260246000fd5b6000600282049050600182168061166357607f821691505b602082108114156116775761167661161c565b5b50919050565b7f617070726f766520746f20746865207a65726f20616464726573732e00000000600082015250565b60006116b3601c83611312565b91506116be8261167d565b602082019050919050565b600060208201905081810360008301526116e2816116a6565b9050919050565b7f617070726f766520746f2073616d6520616464726573732e0000000000000000600082015250565b600061171f601883611312565b915061172a826116e9565b602082019050919050565b6000602082019050818103600083015261174e81611712565b9050919050565b7f617070726f766520616d6f756e74206973207a65726f2e000000000000000000600082015250565b600061178b601783611312565b915061179682611755565b602082019050919050565b600060208201905081810360008301526117ba8161177e565b9050919050565b7f696e73756666696369656e7420616c6c6f77616e63652e000000000000000000600082015250565b60006117f7601783611312565b9150611802826117c1565b602082019050919050565b60006020820190508181036000830152611826816117ea565b9050919050565b7f4e487b7100000000000000000000000000000000000000000000000000000000600052601160045260246000fd5b600061186782611425565b915061187283611425565b9250828210156118855761188461182d565b5b828203905092915050565b7f4f776e61626c653a2063616c6c6572206973206e6f7420746865206f776e657260008201527f2e00000000000000000000000000000000000000000000000000000000000000602082015250565b60006118ec602183611312565b91506118f782611890565b604082019050919050565b6000602082019050818103600083015261191b816118df565b9050919050565b7f4f776e61626c653a206e6577206f776e657220697320746865207a65726f206160008201527f6464726573730000000000000000000000000000000000000000000000000000602082015250565b600061197e602683611312565b915061198982611922565b604082019050919050565b600060208201905081810360008301526119ad81611971565b9050919050565b7f636f6e7472616374206973207061757365642e00000000000000000000000000600082015250565b60006119ea601383611312565b91506119f5826119b4565b602082019050919050565b60006020820190508181036000830152611a19816119dd565b9050919050565b7f7472616e736665722066726f6d20746865207a65726f20616464726573732e00600082015250565b6000611a56601f83611312565b9150611a6182611a20565b602082019050919050565b60006020820190508181036000830152611a8581611a49565b9050919050565b7f7472616e7366657220746f20746865207a65726f20616464726573732e000000600082015250565b6000611ac2601d83611312565b9150611acd82611a8c565b602082019050919050565b60006020820190508181036000830152611af181611ab5565b9050919050565b7f7472616e7366657220746f2073616d6520616464726573732e00000000000000600082015250565b6000611b2e601983611312565b9150611b3982611af8565b602082019050919050565b60006020820190508181036000830152611b5d81611b21565b9050919050565b7f7472616e7366657220616d6f756e74206973207a65726f2e0000000000000000600082015250565b6000611b9a601883611312565b9150611ba582611b64565b602082019050919050565b60006020820190508181036000830152611bc981611b8d565b9050919050565b7f7472616e7366657220616d6f756e7420657863656564732062616c616e63652e600082015250565b6000611c06602083611312565b9150611c1182611bd0565b602082019050919050565b60006020820190508181036000830152611c3581611bf9565b9050919050565b6000611c4782611425565b9150611c5283611425565b9250827fffffffffffffffffffffffffffffffffffffffffffffffffffffffffffffffff03821115611c8757611c8661182d565b5b828201905092915050565b7f6d696e7420746f20746865207a65726f20616464726573732e00000000000000600082015250565b6000611cc8601983611312565b9150611cd382611c92565b602082019050919050565b60006020820190508181036000830152611cf781611cbb565b9050919050565b7f6d696e7420616d6f756e74206973207a65726f2e000000000000000000000000600082015250565b6000611d34601483611312565b9150611d3f82611cfe565b602082019050919050565b60006020820190508181036000830152611d6381611d27565b905091905056fea2646970667358221220a6ccaeb9893f9ceda484eb7bf7b346e652260814220353f03f2f6d687d0d366d64736f6c634300080a0033",
          "opcodes": "PUSH1 0x80 PUSH1 0x40 MSTORE CALLVALUE DUP1 ISZERO PUSH3 0x11 JUMPI PUSH1 0x0 DUP1 REVERT JUMPDEST POP PUSH1 0x40 MLOAD PUSH3 0x221A CODESIZE SUB DUP1 PUSH3 0x221A DUP4 CODECOPY DUP2 DUP2 ADD PUSH1 0x40 MSTORE DUP2 ADD SWAP1 PUSH3 0x37 SWAP2 SWAP1 PUSH3 0x36B JUMP JUMPDEST DUP3 DUP3 DUP3 DUP3 DUP3 DUP3 DUP3 DUP3 DUP3 DUP3 PUSH1 0x1 SWAP1 DUP1 MLOAD SWAP1 PUSH1 0x20 ADD SWAP1 PUSH3 0x58 SWAP3 SWAP2 SWAP1 PUSH3 0xE0 JUMP JUMPDEST POP DUP2 PUSH1 0x2 SWAP1 DUP1 MLOAD SWAP1 PUSH1 0x20 ADD SWAP1 PUSH3 0x71 SWAP3 SWAP2 SWAP1 PUSH3 0xE0 JUMP JUMPDEST POP DUP1 PUSH1 0x3 PUSH1 0x0 PUSH2 0x100 EXP DUP2 SLOAD DUP2 PUSH1 0xFF MUL NOT AND SWAP1 DUP4 PUSH1 0xFF AND MUL OR SWAP1 SSTORE POP POP POP POP POP POP POP CALLER PUSH1 0x6 PUSH1 0x0 PUSH2 0x100 EXP DUP2 SLOAD DUP2 PUSH20 0xFFFFFFFFFFFFFFFFFFFFFFFFFFFFFFFFFFFFFFFF MUL NOT AND SWAP1 DUP4 PUSH20 0xFFFFFFFFFFFFFFFFFFFFFFFFFFFFFFFFFFFFFFFF AND MUL OR SWAP1 SSTORE POP POP POP POP POP POP POP PUSH3 0x46A JUMP JUMPDEST DUP3 DUP1 SLOAD PUSH3 0xEE SWAP1 PUSH3 0x434 JUMP JUMPDEST SWAP1 PUSH1 0x0 MSTORE PUSH1 0x20 PUSH1 0x0 KECCAK256 SWAP1 PUSH1 0x1F ADD PUSH1 0x20 SWAP1 DIV DUP2 ADD SWAP3 DUP3 PUSH3 0x112 JUMPI PUSH1 0x0 DUP6 SSTORE PUSH3 0x15E JUMP JUMPDEST DUP3 PUSH1 0x1F LT PUSH3 0x12D JUMPI DUP1 MLOAD PUSH1 0xFF NOT AND DUP4 DUP1 ADD OR DUP6 SSTORE PUSH3 0x15E JUMP JUMPDEST DUP3 DUP1 ADD PUSH1 0x1 ADD DUP6 SSTORE DUP3 ISZERO PUSH3 0x15E JUMPI SWAP2 DUP3 ADD JUMPDEST DUP3 DUP2 GT ISZERO PUSH3 0x15D JUMPI DUP3 MLOAD DUP3 SSTORE SWAP2 PUSH1 0x20 ADD SWAP2 SWAP1 PUSH1 0x1 ADD SWAP1 PUSH3 0x140 JUMP JUMPDEST JUMPDEST POP SWAP1 POP PUSH3 0x16D SWAP2 SWAP1 PUSH3 0x171 JUMP JUMPDEST POP SWAP1 JUMP JUMPDEST JUMPDEST DUP1 DUP3 GT ISZERO PUSH3 0x18C JUMPI PUSH1 0x0 DUP2 PUSH1 0x0 SWAP1 SSTORE POP PUSH1 0x1 ADD PUSH3 0x172 JUMP JUMPDEST POP SWAP1 JUMP JUMPDEST PUSH1 0x0 PUSH1 0x40 MLOAD SWAP1 POP SWAP1 JUMP JUMPDEST PUSH1 0x0 DUP1 REVERT JUMPDEST PUSH1 0x0 DUP1 REVERT JUMPDEST PUSH1 0x0 DUP1 REVERT JUMPDEST PUSH1 0x0 DUP1 REVERT JUMPDEST PUSH1 0x0 PUSH1 0x1F NOT PUSH1 0x1F DUP4 ADD AND SWAP1 POP SWAP2 SWAP1 POP JUMP JUMPDEST PUSH32 0x4E487B7100000000000000000000000000000000000000000000000000000000 PUSH1 0x0 MSTORE PUSH1 0x41 PUSH1 0x4 MSTORE PUSH1 0x24 PUSH1 0x0 REVERT JUMPDEST PUSH3 0x1F9 DUP3 PUSH3 0x1AE JUMP JUMPDEST DUP2 ADD DUP2 DUP2 LT PUSH8 0xFFFFFFFFFFFFFFFF DUP3 GT OR ISZERO PUSH3 0x21B JUMPI PUSH3 0x21A PUSH3 0x1BF JUMP JUMPDEST JUMPDEST DUP1 PUSH1 0x40 MSTORE POP POP POP JUMP JUMPDEST PUSH1 0x0 PUSH3 0x230 PUSH3 0x190 JUMP JUMPDEST SWAP1 POP PUSH3 0x23E DUP3 DUP3 PUSH3 0x1EE JUMP JUMPDEST SWAP2 SWAP1 POP JUMP JUMPDEST PUSH1 0x0 PUSH8 0xFFFFFFFFFFFFFFFF DUP3 GT ISZERO PUSH3 0x261 JUMPI PUSH3 0x260 PUSH3 0x1BF JUMP JUMPDEST JUMPDEST PUSH3 0x26C DUP3 PUSH3 0x1AE JUMP JUMPDEST SWAP1 POP PUSH1 0x20 DUP2 ADD SWAP1 POP SWAP2 SWAP1 POP JUMP JUMPDEST PUSH1 0x0 JUMPDEST DUP4 DUP2 LT ISZERO PUSH3 0x299 JUMPI DUP1 DUP3 ADD MLOAD DUP2 DUP5 ADD MSTORE PUSH1 0x20 DUP2 ADD SWAP1 POP PUSH3 0x27C JUMP JUMPDEST DUP4 DUP2 GT ISZERO PUSH3 0x2A9 JUMPI PUSH1 0x0 DUP5 DUP5 ADD MSTORE JUMPDEST POP POP POP POP JUMP JUMPDEST PUSH1 0x0 PUSH3 0x2C6 PUSH3 0x2C0 DUP5 PUSH3 0x243 JUMP JUMPDEST PUSH3 0x224 JUMP JUMPDEST SWAP1 POP DUP3 DUP2 MSTORE PUSH1 0x20 DUP2 ADD DUP5 DUP5 DUP5 ADD GT ISZERO PUSH3 0x2E5 JUMPI PUSH3 0x2E4 PUSH3 0x1A9 JUMP JUMPDEST JUMPDEST PUSH3 0x2F2 DUP5 DUP3 DUP6 PUSH3 0x279 JUMP JUMPDEST POP SWAP4 SWAP3 POP POP POP JUMP JUMPDEST PUSH1 0x0 DUP3 PUSH1 0x1F DUP4 ADD SLT PUSH3 0x312 JUMPI PUSH3 0x311 PUSH3 0x1A4 JUMP JUMPDEST JUMPDEST DUP2 MLOAD PUSH3 0x324 DUP5 DUP3 PUSH1 0x20 DUP7 ADD PUSH3 0x2AF JUMP JUMPDEST SWAP2 POP POP SWAP3 SWAP2 POP POP JUMP JUMPDEST PUSH1 0x0 PUSH1 0xFF DUP3 AND SWAP1 POP SWAP2 SWAP1 POP JUMP JUMPDEST PUSH3 0x345 DUP2 PUSH3 0x32D JUMP JUMPDEST DUP2 EQ PUSH3 0x351 JUMPI PUSH1 0x0 DUP1 REVERT JUMPDEST POP JUMP JUMPDEST PUSH1 0x0 DUP2 MLOAD SWAP1 POP PUSH3 0x365 DUP2 PUSH3 0x33A JUMP JUMPDEST SWAP3 SWAP2 POP POP JUMP JUMPDEST PUSH1 0x0 DUP1 PUSH1 0x0 PUSH1 0x60 DUP5 DUP7 SUB SLT ISZERO PUSH3 0x387 JUMPI PUSH3 0x386 PUSH3 0x19A JUMP JUMPDEST JUMPDEST PUSH1 0x0 DUP5 ADD MLOAD PUSH8 0xFFFFFFFFFFFFFFFF DUP2 GT ISZERO PUSH3 0x3A8 JUMPI PUSH3 0x3A7 PUSH3 0x19F JUMP JUMPDEST JUMPDEST PUSH3 0x3B6 DUP7 DUP3 DUP8 ADD PUSH3 0x2FA JUMP JUMPDEST SWAP4 POP POP PUSH1 0x20 DUP5 ADD MLOAD PUSH8 0xFFFFFFFFFFFFFFFF DUP2 GT ISZERO PUSH3 0x3DA JUMPI PUSH3 0x3D9 PUSH3 0x19F JUMP JUMPDEST JUMPDEST PUSH3 0x3E8 DUP7 DUP3 DUP8 ADD PUSH3 0x2FA JUMP JUMPDEST SWAP3 POP POP PUSH1 0x40 PUSH3 0x3FB DUP7 DUP3 DUP8 ADD PUSH3 0x354 JUMP JUMPDEST SWAP2 POP POP SWAP3 POP SWAP3 POP SWAP3 JUMP JUMPDEST PUSH32 0x4E487B7100000000000000000000000000000000000000000000000000000000 PUSH1 0x0 MSTORE PUSH1 0x22 PUSH1 0x4 MSTORE PUSH1 0x24 PUSH1 0x0 REVERT JUMPDEST PUSH1 0x0 PUSH1 0x2 DUP3 DIV SWAP1 POP PUSH1 0x1 DUP3 AND DUP1 PUSH3 0x44D JUMPI PUSH1 0x7F DUP3 AND SWAP2 POP JUMPDEST PUSH1 0x20 DUP3 LT DUP2 EQ ISZERO PUSH3 0x464 JUMPI PUSH3 0x463 PUSH3 0x405 JUMP JUMPDEST JUMPDEST POP SWAP2 SWAP1 POP JUMP JUMPDEST PUSH2 0x1DA0 DUP1 PUSH3 0x47A PUSH1 0x0 CODECOPY PUSH1 0x0 RETURN INVALID PUSH1 0x80 PUSH1 0x40 MSTORE CALLVALUE DUP1 ISZERO PUSH2 0x10 JUMPI PUSH1 0x0 DUP1 REVERT JUMPDEST POP PUSH1 0x4 CALLDATASIZE LT PUSH2 0xF5 JUMPI PUSH1 0x0 CALLDATALOAD PUSH1 0xE0 SHR DUP1 PUSH4 0x70A08231 GT PUSH2 0x97 JUMPI DUP1 PUSH4 0xA9059CBB GT PUSH2 0x66 JUMPI DUP1 PUSH4 0xA9059CBB EQ PUSH2 0x264 JUMPI DUP1 PUSH4 0xDD62ED3E EQ PUSH2 0x294 JUMPI DUP1 PUSH4 0xF2FDE38B EQ PUSH2 0x2C4 JUMPI DUP1 PUSH4 0xF7B188A5 EQ PUSH2 0x2E0 JUMPI PUSH2 0xF5 JUMP JUMPDEST DUP1 PUSH4 0x70A08231 EQ PUSH2 0x1EE JUMPI DUP1 PUSH4 0x8456CB59 EQ PUSH2 0x21E JUMPI DUP1 PUSH4 0x8DA5CB5B EQ PUSH2 0x228 JUMPI DUP1 PUSH4 0x95D89B41 EQ PUSH2 0x246 JUMPI PUSH2 0xF5 JUMP JUMPDEST DUP1 PUSH4 0x23B872DD GT PUSH2 0xD3 JUMPI DUP1 PUSH4 0x23B872DD EQ PUSH2 0x166 JUMPI DUP1 PUSH4 0x313CE567 EQ PUSH2 0x196 JUMPI DUP1 PUSH4 0x40C10F19 EQ PUSH2 0x1B4 JUMPI DUP1 PUSH4 0x5C975ABB EQ PUSH2 0x1D0 JUMPI PUSH2 0xF5 JUMP JUMPDEST DUP1 PUSH4 0x6FDDE03 EQ PUSH2 0xFA JUMPI DUP1 PUSH4 0x95EA7B3 EQ PUSH2 0x118 JUMPI DUP1 PUSH4 0x18160DDD EQ PUSH2 0x148 JUMPI JUMPDEST PUSH1 0x0 DUP1 REVERT JUMPDEST PUSH2 0x102 PUSH2 0x2EA JUMP JUMPDEST PUSH1 0x40 MLOAD PUSH2 0x10F SWAP2 SWAP1 PUSH2 0x13A0 JUMP JUMPDEST PUSH1 0x40 MLOAD DUP1 SWAP2 SUB SWAP1 RETURN JUMPDEST PUSH2 0x132 PUSH1 0x4 DUP1 CALLDATASIZE SUB DUP2 ADD SWAP1 PUSH2 0x12D SWAP2 SWAP1 PUSH2 0x145B JUMP JUMPDEST PUSH2 0x37C JUMP JUMPDEST PUSH1 0x40 MLOAD PUSH2 0x13F SWAP2 SWAP1 PUSH2 0x14B6 JUMP JUMPDEST PUSH1 0x40 MLOAD DUP1 SWAP2 SUB SWAP1 RETURN JUMPDEST PUSH2 0x150 PUSH2 0x58F JUMP JUMPDEST PUSH1 0x40 MLOAD PUSH2 0x15D SWAP2 SWAP1 PUSH2 0x14E0 JUMP JUMPDEST PUSH1 0x40 MLOAD DUP1 SWAP2 SUB SWAP1 RETURN JUMPDEST PUSH2 0x180 PUSH1 0x4 DUP1 CALLDATASIZE SUB DUP2 ADD SWAP1 PUSH2 0x17B SWAP2 SWAP1 PUSH2 0x14FB JUMP JUMPDEST PUSH2 0x598 JUMP JUMPDEST PUSH1 0x40 MLOAD PUSH2 0x18D SWAP2 SWAP1 PUSH2 0x14B6 JUMP JUMPDEST PUSH1 0x40 MLOAD DUP1 SWAP2 SUB SWAP1 RETURN JUMPDEST PUSH2 0x19E PUSH2 0x702 JUMP JUMPDEST PUSH1 0x40 MLOAD PUSH2 0x1AB SWAP2 SWAP1 PUSH2 0x156A JUMP JUMPDEST PUSH1 0x40 MLOAD DUP1 SWAP2 SUB SWAP1 RETURN JUMPDEST PUSH2 0x1CE PUSH1 0x4 DUP1 CALLDATASIZE SUB DUP2 ADD SWAP1 PUSH2 0x1C9 SWAP2 SWAP1 PUSH2 0x145B JUMP JUMPDEST PUSH2 0x719 JUMP JUMPDEST STOP JUMPDEST PUSH2 0x1D8 PUSH2 0x81C JUMP JUMPDEST PUSH1 0x40 MLOAD PUSH2 0x1E5 SWAP2 SWAP1 PUSH2 0x14B6 JUMP JUMPDEST PUSH1 0x40 MLOAD DUP1 SWAP2 SUB SWAP1 RETURN JUMPDEST PUSH2 0x208 PUSH1 0x4 DUP1 CALLDATASIZE SUB DUP2 ADD SWAP1 PUSH2 0x203 SWAP2 SWAP1 PUSH2 0x1585 JUMP JUMPDEST PUSH2 0x833 JUMP JUMPDEST PUSH1 0x40 MLOAD PUSH2 0x215 SWAP2 SWAP1 PUSH2 0x14E0 JUMP JUMPDEST PUSH1 0x40 MLOAD DUP1 SWAP2 SUB SWAP1 RETURN JUMPDEST PUSH2 0x226 PUSH2 0x87C JUMP JUMPDEST STOP JUMPDEST PUSH2 0x230 PUSH2 0x96C JUMP JUMPDEST PUSH1 0x40 MLOAD PUSH2 0x23D SWAP2 SWAP1 PUSH2 0x15C1 JUMP JUMPDEST PUSH1 0x40 MLOAD DUP1 SWAP2 SUB SWAP1 RETURN JUMPDEST PUSH2 0x24E PUSH2 0x996 JUMP JUMPDEST PUSH1 0x40 MLOAD PUSH2 0x25B SWAP2 SWAP1 PUSH2 0x13A0 JUMP JUMPDEST PUSH1 0x40 MLOAD DUP1 SWAP2 SUB SWAP1 RETURN JUMPDEST PUSH2 0x27E PUSH1 0x4 DUP1 CALLDATASIZE SUB DUP2 ADD SWAP1 PUSH2 0x279 SWAP2 SWAP1 PUSH2 0x145B JUMP JUMPDEST PUSH2 0xA28 JUMP JUMPDEST PUSH1 0x40 MLOAD PUSH2 0x28B SWAP2 SWAP1 PUSH2 0x14B6 JUMP JUMPDEST PUSH1 0x40 MLOAD DUP1 SWAP2 SUB SWAP1 RETURN JUMPDEST PUSH2 0x2AE PUSH1 0x4 DUP1 CALLDATASIZE SUB DUP2 ADD SWAP1 PUSH2 0x2A9 SWAP2 SWAP1 PUSH2 0x15DC JUMP JUMPDEST PUSH2 0xA3F JUMP JUMPDEST PUSH1 0x40 MLOAD PUSH2 0x2BB SWAP2 SWAP1 PUSH2 0x14E0 JUMP JUMPDEST PUSH1 0x40 MLOAD DUP1 SWAP2 SUB SWAP1 RETURN JUMPDEST PUSH2 0x2DE PUSH1 0x4 DUP1 CALLDATASIZE SUB DUP2 ADD SWAP1 PUSH2 0x2D9 SWAP2 SWAP1 PUSH2 0x1585 JUMP JUMPDEST PUSH2 0xAC6 JUMP JUMPDEST STOP JUMPDEST PUSH2 0x2E8 PUSH2 0xC8C JUMP JUMPDEST STOP JUMPDEST PUSH1 0x60 PUSH1 0x1 DUP1 SLOAD PUSH2 0x2F9 SWAP1 PUSH2 0x164B JUMP JUMPDEST DUP1 PUSH1 0x1F ADD PUSH1 0x20 DUP1 SWAP2 DIV MUL PUSH1 0x20 ADD PUSH1 0x40 MLOAD SWAP1 DUP2 ADD PUSH1 0x40 MSTORE DUP1 SWAP3 SWAP2 SWAP1 DUP2 DUP2 MSTORE PUSH1 0x20 ADD DUP3 DUP1 SLOAD PUSH2 0x325 SWAP1 PUSH2 0x164B JUMP JUMPDEST DUP1 ISZERO PUSH2 0x372 JUMPI DUP1 PUSH1 0x1F LT PUSH2 0x347 JUMPI PUSH2 0x100 DUP1 DUP4 SLOAD DIV MUL DUP4 MSTORE SWAP2 PUSH1 0x20 ADD SWAP2 PUSH2 0x372 JUMP JUMPDEST DUP3 ADD SWAP2 SWAP1 PUSH1 0x0 MSTORE PUSH1 0x20 PUSH1 0x0 KECCAK256 SWAP1 JUMPDEST DUP2 SLOAD DUP2 MSTORE SWAP1 PUSH1 0x1 ADD SWAP1 PUSH1 0x20 ADD DUP1 DUP4 GT PUSH2 0x355 JUMPI DUP3 SWAP1 SUB PUSH1 0x1F AND DUP3 ADD SWAP2 JUMPDEST POP POP POP POP POP SWAP1 POP SWAP1 JUMP JUMPDEST PUSH1 0x0 DUP1 PUSH20 0xFFFFFFFFFFFFFFFFFFFFFFFFFFFFFFFFFFFFFFFF AND DUP4 PUSH20 0xFFFFFFFFFFFFFFFFFFFFFFFFFFFFFFFFFFFFFFFF AND EQ ISZERO PUSH2 0x3ED JUMPI PUSH1 0x40 MLOAD PUSH32 0x8C379A000000000000000000000000000000000000000000000000000000000 DUP2 MSTORE PUSH1 0x4 ADD PUSH2 0x3E4 SWAP1 PUSH2 0x16C9 JUMP JUMPDEST PUSH1 0x40 MLOAD DUP1 SWAP2 SUB SWAP1 REVERT JUMPDEST CALLER PUSH20 0xFFFFFFFFFFFFFFFFFFFFFFFFFFFFFFFFFFFFFFFF AND DUP4 PUSH20 0xFFFFFFFFFFFFFFFFFFFFFFFFFFFFFFFFFFFFFFFF AND EQ ISZERO PUSH2 0x45C JUMPI PUSH1 0x40 MLOAD PUSH32 0x8C379A000000000000000000000000000000000000000000000000000000000 DUP2 MSTORE PUSH1 0x4 ADD PUSH2 0x453 SWAP1 PUSH2 0x1735 JUMP JUMPDEST PUSH1 0x40 MLOAD DUP1 SWAP2 SUB SWAP1 REVERT JUMPDEST PUSH1 0x0 DUP3 GT PUSH2 0x49F JUMPI PUSH1 0x40 MLOAD PUSH32 0x8C379A000000000000000000000000000000000000000000000000000000000 DUP2 MSTORE PUSH1 0x4 ADD PUSH2 0x496 SWAP1 PUSH2 0x17A1 JUMP JUMPDEST PUSH1 0x40 MLOAD DUP1 SWAP2 SUB SWAP1 REVERT JUMPDEST DUP2 PUSH1 0x5 PUSH1 0x0 CALLER PUSH20 0xFFFFFFFFFFFFFFFFFFFFFFFFFFFFFFFFFFFFFFFF AND PUSH20 0xFFFFFFFFFFFFFFFFFFFFFFFFFFFFFFFFFFFFFFFF AND DUP2 MSTORE PUSH1 0x20 ADD SWAP1 DUP2 MSTORE PUSH1 0x20 ADD PUSH1 0x0 KECCAK256 PUSH1 0x0 DUP6 PUSH20 0xFFFFFFFFFFFFFFFFFFFFFFFFFFFFFFFFFFFFFFFF AND PUSH20 0xFFFFFFFFFFFFFFFFFFFFFFFFFFFFFFFFFFFFFFFF AND DUP2 MSTORE PUSH1 0x20 ADD SWAP1 DUP2 MSTORE PUSH1 0x20 ADD PUSH1 0x0 KECCAK256 DUP2 SWAP1 SSTORE POP DUP3 PUSH20 0xFFFFFFFFFFFFFFFFFFFFFFFFFFFFFFFFFFFFFFFF AND CALLER PUSH20 0xFFFFFFFFFFFFFFFFFFFFFFFFFFFFFFFFFFFFFFFF AND PUSH32 0x8C5BE1E5EBEC7D5BD14F71427D1E84F3DD0314C0F7B2291E5B200AC8C7C3B925 DUP5 PUSH1 0x40 MLOAD PUSH2 0x57D SWAP2 SWAP1 PUSH2 0x14E0 JUMP JUMPDEST PUSH1 0x40 MLOAD DUP1 SWAP2 SUB SWAP1 LOG3 PUSH1 0x1 SWAP1 POP SWAP3 SWAP2 POP POP JUMP JUMPDEST PUSH1 0x0 DUP1 SLOAD SWAP1 POP SWAP1 JUMP JUMPDEST PUSH1 0x0 DUP2 PUSH1 0x5 PUSH1 0x0 DUP7 PUSH20 0xFFFFFFFFFFFFFFFFFFFFFFFFFFFFFFFFFFFFFFFF AND PUSH20 0xFFFFFFFFFFFFFFFFFFFFFFFFFFFFFFFFFFFFFFFF AND DUP2 MSTORE PUSH1 0x20 ADD SWAP1 DUP2 MSTORE PUSH1 0x20 ADD PUSH1 0x0 KECCAK256 PUSH1 0x0 CALLER PUSH20 0xFFFFFFFFFFFFFFFFFFFFFFFFFFFFFFFFFFFFFFFF AND PUSH20 0xFFFFFFFFFFFFFFFFFFFFFFFFFFFFFFFFFFFFFFFF AND DUP2 MSTORE PUSH1 0x20 ADD SWAP1 DUP2 MSTORE PUSH1 0x20 ADD PUSH1 0x0 KECCAK256 SLOAD LT ISZERO PUSH2 0x659 JUMPI PUSH1 0x40 MLOAD PUSH32 0x8C379A000000000000000000000000000000000000000000000000000000000 DUP2 MSTORE PUSH1 0x4 ADD PUSH2 0x650 SWAP1 PUSH2 0x180D JUMP JUMPDEST PUSH1 0x40 MLOAD DUP1 SWAP2 SUB SWAP1 REVERT JUMPDEST DUP2 PUSH1 0x5 PUSH1 0x0 DUP7 PUSH20 0xFFFFFFFFFFFFFFFFFFFFFFFFFFFFFFFFFFFFFFFF AND PUSH20 0xFFFFFFFFFFFFFFFFFFFFFFFFFFFFFFFFFFFFFFFF AND DUP2 MSTORE PUSH1 0x20 ADD SWAP1 DUP2 MSTORE PUSH1 0x20 ADD PUSH1 0x0 KECCAK256 PUSH1 0x0 CALLER PUSH20 0xFFFFFFFFFFFFFFFFFFFFFFFFFFFFFFFFFFFFFFFF AND PUSH20 0xFFFFFFFFFFFFFFFFFFFFFFFFFFFFFFFFFFFFFFFF AND DUP2 MSTORE PUSH1 0x20 ADD SWAP1 DUP2 MSTORE PUSH1 0x20 ADD PUSH1 0x0 KECCAK256 PUSH1 0x0 DUP3 DUP3 SLOAD PUSH2 0x6E5 SWAP2 SWAP1 PUSH2 0x185C JUMP JUMPDEST SWAP3 POP POP DUP2 SWAP1 SSTORE POP PUSH2 0x6F7 DUP5 DUP5 DUP5 PUSH2 0xD7C JUMP JUMPDEST PUSH1 0x1 SWAP1 POP SWAP4 SWAP3 POP POP POP JUMP JUMPDEST PUSH1 0x0 PUSH1 0x3 PUSH1 0x0 SWAP1 SLOAD SWAP1 PUSH2 0x100 EXP SWAP1 DIV PUSH1 0xFF AND SWAP1 POP SWAP1 JUMP JUMPDEST CALLER PUSH20 0xFFFFFFFFFFFFFFFFFFFFFFFFFFFFFFFFFFFFFFFF AND PUSH1 0x6 PUSH1 0x0 SWAP1 SLOAD SWAP1 PUSH2 0x100 EXP SWAP1 DIV PUSH20 0xFFFFFFFFFFFFFFFFFFFFFFFFFFFFFFFFFFFFFFFF AND PUSH20 0xFFFFFFFFFFFFFFFFFFFFFFFFFFFFFFFFFFFFFFFF AND EQ PUSH2 0x7A9 JUMPI PUSH1 0x40 MLOAD PUSH32 0x8C379A000000000000000000000000000000000000000000000000000000000 DUP2 MSTORE PUSH1 0x4 ADD PUSH2 0x7A0 SWAP1 PUSH2 0x1902 JUMP JUMPDEST PUSH1 0x40 MLOAD DUP1 SWAP2 SUB SWAP1 REVERT JUMPDEST PUSH2 0x7B3 DUP3 DUP3 PUSH2 0xDA2 JUMP JUMPDEST DUP2 PUSH20 0xFFFFFFFFFFFFFFFFFFFFFFFFFFFFFFFFFFFFFFFF AND CALLER PUSH20 0xFFFFFFFFFFFFFFFFFFFFFFFFFFFFFFFFFFFFFFFF AND PUSH32 0xAB8530F87DC9B59234C4623BF917212BB2536D647574C8E7E5DA92C2EDE0C9F8 DUP4 PUSH1 0x40 MLOAD PUSH2 0x810 SWAP2 SWAP1 PUSH2 0x14E0 JUMP JUMPDEST PUSH1 0x40 MLOAD DUP1 SWAP2 SUB SWAP1 LOG3 POP POP JUMP JUMPDEST PUSH1 0x0 PUSH1 0x6 PUSH1 0x14 SWAP1 SLOAD SWAP1 PUSH2 0x100 EXP SWAP1 DIV PUSH1 0xFF AND SWAP1 POP SWAP1 JUMP JUMPDEST PUSH1 0x0 PUSH1 0x4 PUSH1 0x0 DUP4 PUSH20 0xFFFFFFFFFFFFFFFFFFFFFFFFFFFFFFFFFFFFFFFF AND PUSH20 0xFFFFFFFFFFFFFFFFFFFFFFFFFFFFFFFFFFFFFFFF AND DUP2 MSTORE PUSH1 0x20 ADD SWAP1 DUP2 MSTORE PUSH1 0x20 ADD PUSH1 0x0 KECCAK256 SLOAD SWAP1 POP SWAP2 SWAP1 POP JUMP JUMPDEST CALLER PUSH20 0xFFFFFFFFFFFFFFFFFFFFFFFFFFFFFFFFFFFFFFFF AND PUSH1 0x6 PUSH1 0x0 SWAP1 SLOAD SWAP1 PUSH2 0x100 EXP SWAP1 DIV PUSH20 0xFFFFFFFFFFFFFFFFFFFFFFFFFFFFFFFFFFFFFFFF AND PUSH20 0xFFFFFFFFFFFFFFFFFFFFFFFFFFFFFFFFFFFFFFFF AND EQ PUSH2 0x90C JUMPI PUSH1 0x40 MLOAD PUSH32 0x8C379A000000000000000000000000000000000000000000000000000000000 DUP2 MSTORE PUSH1 0x4 ADD PUSH2 0x903 SWAP1 PUSH2 0x1902 JUMP JUMPDEST PUSH1 0x40 MLOAD DUP1 SWAP2 SUB SWAP1 REVERT JUMPDEST PUSH1 0x1 PUSH1 0x6 PUSH1 0x14 PUSH2 0x100 EXP DUP2 SLOAD DUP2 PUSH1 0xFF MUL NOT AND SWAP1 DUP4 ISZERO ISZERO MUL OR SWAP1 SSTORE POP CALLER PUSH20 0xFFFFFFFFFFFFFFFFFFFFFFFFFFFFFFFFFFFFFFFF AND PUSH32 0x62E78CEA01BEE320CD4E420270B5EA74000D11B0C9F74754EBDBFC544B05A258 PUSH1 0x40 MLOAD PUSH1 0x40 MLOAD DUP1 SWAP2 SUB SWAP1 LOG2 JUMP JUMPDEST PUSH1 0x0 PUSH1 0x6 PUSH1 0x0 SWAP1 SLOAD SWAP1 PUSH2 0x100 EXP SWAP1 DIV PUSH20 0xFFFFFFFFFFFFFFFFFFFFFFFFFFFFFFFFFFFFFFFF AND SWAP1 POP SWAP1 JUMP JUMPDEST PUSH1 0x60 PUSH1 0x2 DUP1 SLOAD PUSH2 0x9A5 SWAP1 PUSH2 0x164B JUMP JUMPDEST DUP1 PUSH1 0x1F ADD PUSH1 0x20 DUP1 SWAP2 DIV MUL PUSH1 0x20 ADD PUSH1 0x40 MLOAD SWAP1 DUP2 ADD PUSH1 0x40 MSTORE DUP1 SWAP3 SWAP2 SWAP1 DUP2 DUP2 MSTORE PUSH1 0x20 ADD DUP3 DUP1 SLOAD PUSH2 0x9D1 SWAP1 PUSH2 0x164B JUMP JUMPDEST DUP1 ISZERO PUSH2 0xA1E JUMPI DUP1 PUSH1 0x1F LT PUSH2 0x9F3 JUMPI PUSH2 0x100 DUP1 DUP4 SLOAD DIV MUL DUP4 MSTORE SWAP2 PUSH1 0x20 ADD SWAP2 PUSH2 0xA1E JUMP JUMPDEST DUP3 ADD SWAP2 SWAP1 PUSH1 0x0 MSTORE PUSH1 0x20 PUSH1 0x0 KECCAK256 SWAP1 JUMPDEST DUP2 SLOAD DUP2 MSTORE SWAP1 PUSH1 0x1 ADD SWAP1 PUSH1 0x20 ADD DUP1 DUP4 GT PUSH2 0xA01 JUMPI DUP3 SWAP1 SUB PUSH1 0x1F AND DUP3 ADD SWAP2 JUMPDEST POP POP POP POP POP SWAP1 POP SWAP1 JUMP JUMPDEST PUSH1 0x0 PUSH2 0xA35 CALLER DUP5 DUP5 PUSH2 0xD7C JUMP JUMPDEST PUSH1 0x1 SWAP1 POP SWAP3 SWAP2 POP POP JUMP JUMPDEST PUSH1 0x0 PUSH1 0x5 PUSH1 0x0 DUP5 PUSH20 0xFFFFFFFFFFFFFFFFFFFFFFFFFFFFFFFFFFFFFFFF AND PUSH20 0xFFFFFFFFFFFFFFFFFFFFFFFFFFFFFFFFFFFFFFFF AND DUP2 MSTORE PUSH1 0x20 ADD SWAP1 DUP2 MSTORE PUSH1 0x20 ADD PUSH1 0x0 KECCAK256 PUSH1 0x0 DUP4 PUSH20 0xFFFFFFFFFFFFFFFFFFFFFFFFFFFFFFFFFFFFFFFF AND PUSH20 0xFFFFFFFFFFFFFFFFFFFFFFFFFFFFFFFFFFFFFFFF AND DUP2 MSTORE PUSH1 0x20 ADD SWAP1 DUP2 MSTORE PUSH1 0x20 ADD PUSH1 0x0 KECCAK256 SLOAD SWAP1 POP SWAP3 SWAP2 POP POP JUMP JUMPDEST CALLER PUSH20 0xFFFFFFFFFFFFFFFFFFFFFFFFFFFFFFFFFFFFFFFF AND PUSH1 0x6 PUSH1 0x0 SWAP1 SLOAD SWAP1 PUSH2 0x100 EXP SWAP1 DIV PUSH20 0xFFFFFFFFFFFFFFFFFFFFFFFFFFFFFFFFFFFFFFFF AND PUSH20 0xFFFFFFFFFFFFFFFFFFFFFFFFFFFFFFFFFFFFFFFF AND EQ PUSH2 0xB56 JUMPI PUSH1 0x40 MLOAD PUSH32 0x8C379A000000000000000000000000000000000000000000000000000000000 DUP2 MSTORE PUSH1 0x4 ADD PUSH2 0xB4D SWAP1 PUSH2 0x1902 JUMP JUMPDEST PUSH1 0x40 MLOAD DUP1 SWAP2 SUB SWAP1 REVERT JUMPDEST PUSH1 0x0 PUSH20 0xFFFFFFFFFFFFFFFFFFFFFFFFFFFFFFFFFFFFFFFF AND DUP2 PUSH20 0xFFFFFFFFFFFFFFFFFFFFFFFFFFFFFFFFFFFFFFFF AND EQ ISZERO PUSH2 0xBC6 JUMPI PUSH1 0x40 MLOAD PUSH32 0x8C379A000000000000000000000000000000000000000000000000000000000 DUP2 MSTORE PUSH1 0x4 ADD PUSH2 0xBBD SWAP1 PUSH2 0x1994 JUMP JUMPDEST PUSH1 0x40 MLOAD DUP1 SWAP2 SUB SWAP1 REVERT JUMPDEST PUSH1 0x0 PUSH1 0x6 PUSH1 0x0 SWAP1 SLOAD SWAP1 PUSH2 0x100 EXP SWAP1 DIV PUSH20 0xFFFFFFFFFFFFFFFFFFFFFFFFFFFFFFFFFFFFFFFF AND SWAP1 POP DUP2 PUSH1 0x6 PUSH1 0x0 PUSH2 0x100 EXP DUP2 SLOAD DUP2 PUSH20 0xFFFFFFFFFFFFFFFFFFFFFFFFFFFFFFFFFFFFFFFF MUL NOT AND SWAP1 DUP4 PUSH20 0xFFFFFFFFFFFFFFFFFFFFFFFFFFFFFFFFFFFFFFFF AND MUL OR SWAP1 SSTORE POP DUP2 PUSH20 0xFFFFFFFFFFFFFFFFFFFFFFFFFFFFFFFFFFFFFFFF AND DUP2 PUSH20 0xFFFFFFFFFFFFFFFFFFFFFFFFFFFFFFFFFFFFFFFF AND PUSH32 0x8BE0079C531659141344CD1FD0A4F28419497F9722A3DAAFE3B4186F6B6457E0 PUSH1 0x40 MLOAD PUSH1 0x40 MLOAD DUP1 SWAP2 SUB SWAP1 LOG3 POP POP JUMP JUMPDEST CALLER PUSH20 0xFFFFFFFFFFFFFFFFFFFFFFFFFFFFFFFFFFFFFFFF AND PUSH1 0x6 PUSH1 0x0 SWAP1 SLOAD SWAP1 PUSH2 0x100 EXP SWAP1 DIV PUSH20 0xFFFFFFFFFFFFFFFFFFFFFFFFFFFFFFFFFFFFFFFF AND PUSH20 0xFFFFFFFFFFFFFFFFFFFFFFFFFFFFFFFFFFFFFFFF AND EQ PUSH2 0xD1C JUMPI PUSH1 0x40 MLOAD PUSH32 0x8C379A000000000000000000000000000000000000000000000000000000000 DUP2 MSTORE PUSH1 0x4 ADD PUSH2 0xD13 SWAP1 PUSH2 0x1902 JUMP JUMPDEST PUSH1 0x40 MLOAD DUP1 SWAP2 SUB SWAP1 REVERT JUMPDEST PUSH1 0x0 PUSH1 0x6 PUSH1 0x14 PUSH2 0x100 EXP DUP2 SLOAD DUP2 PUSH1 0xFF MUL NOT AND SWAP1 DUP4 ISZERO ISZERO MUL OR SWAP1 SSTORE POP CALLER PUSH20 0xFFFFFFFFFFFFFFFFFFFFFFFFFFFFFFFFFFFFFFFF AND PUSH32 0xFF2B959F2BCDB44C7ECB4B16DAE055431019D7350607125CFC2B74A06632C90E PUSH1 0x40 MLOAD PUSH1 0x40 MLOAD DUP1 SWAP2 SUB SWAP1 LOG2 JUMP JUMPDEST PUSH2 0xD87 DUP4 DUP4 DUP4 PUSH2 0xDC8 JUMP JUMPDEST PUSH2 0xD92 DUP4 DUP4 DUP4 PUSH2 0xE15 JUMP JUMPDEST PUSH2 0xD9D DUP4 DUP4 DUP4 PUSH2 0x1177 JUMP JUMPDEST POP POP POP JUMP JUMPDEST PUSH2 0xDAE PUSH1 0x0 DUP4 DUP4 PUSH2 0xDC8 JUMP JUMPDEST PUSH2 0xDB8 DUP3 DUP3 PUSH2 0x117C JUMP JUMPDEST PUSH2 0xDC4 PUSH1 0x0 DUP4 DUP4 PUSH2 0x1177 JUMP JUMPDEST POP POP JUMP JUMPDEST PUSH2 0xDD0 PUSH2 0x81C JUMP JUMPDEST ISZERO PUSH2 0xE10 JUMPI PUSH1 0x40 MLOAD PUSH32 0x8C379A000000000000000000000000000000000000000000000000000000000 DUP2 MSTORE PUSH1 0x4 ADD PUSH2 0xE07 SWAP1 PUSH2 0x1A00 JUMP JUMPDEST PUSH1 0x40 MLOAD DUP1 SWAP2 SUB SWAP1 REVERT JUMPDEST POP POP POP JUMP JUMPDEST PUSH1 0x0 PUSH20 0xFFFFFFFFFFFFFFFFFFFFFFFFFFFFFFFFFFFFFFFF AND DUP4 PUSH20 0xFFFFFFFFFFFFFFFFFFFFFFFFFFFFFFFFFFFFFFFF AND EQ ISZERO PUSH2 0xE85 JUMPI PUSH1 0x40 MLOAD PUSH32 0x8C379A000000000000000000000000000000000000000000000000000000000 DUP2 MSTORE PUSH1 0x4 ADD PUSH2 0xE7C SWAP1 PUSH2 0x1A6C JUMP JUMPDEST PUSH1 0x40 MLOAD DUP1 SWAP2 SUB SWAP1 REVERT JUMPDEST PUSH1 0x0 PUSH20 0xFFFFFFFFFFFFFFFFFFFFFFFFFFFFFFFFFFFFFFFF AND DUP3 PUSH20 0xFFFFFFFFFFFFFFFFFFFFFFFFFFFFFFFFFFFFFFFF AND EQ ISZERO PUSH2 0xEF5 JUMPI PUSH1 0x40 MLOAD PUSH32 0x8C379A000000000000000000000000000000000000000000000000000000000 DUP2 MSTORE PUSH1 0x4 ADD PUSH2 0xEEC SWAP1 PUSH2 0x1AD8 JUMP JUMPDEST PUSH1 0x40 MLOAD DUP1 SWAP2 SUB SWAP1 REVERT JUMPDEST DUP2 PUSH20 0xFFFFFFFFFFFFFFFFFFFFFFFFFFFFFFFFFFFFFFFF AND DUP4 PUSH20 0xFFFFFFFFFFFFFFFFFFFFFFFFFFFFFFFFFFFFFFFF AND EQ ISZERO PUSH2 0xF64 JUMPI PUSH1 0x40 MLOAD PUSH32 0x8C379A000000000000000000000000000000000000000000000000000000000 DUP2 MSTORE PUSH1 0x4 ADD PUSH2 0xF5B SWAP1 PUSH2 0x1B44 JUMP JUMPDEST PUSH1 0x40 MLOAD DUP1 SWAP2 SUB SWAP1 REVERT JUMPDEST PUSH1 0x0 DUP2 GT PUSH2 0xFA7 JUMPI PUSH1 0x40 MLOAD PUSH32 0x8C379A000000000000000000000000000000000000000000000000000000000 DUP2 MSTORE PUSH1 0x4 ADD PUSH2 0xF9E SWAP1 PUSH2 0x1BB0 JUMP JUMPDEST PUSH1 0x40 MLOAD DUP1 SWAP2 SUB SWAP1 REVERT JUMPDEST DUP1 PUSH1 0x4 PUSH1 0x0 DUP6 PUSH20 0xFFFFFFFFFFFFFFFFFFFFFFFFFFFFFFFFFFFFFFFF AND PUSH20 0xFFFFFFFFFFFFFFFFFFFFFFFFFFFFFFFFFFFFFFFF AND DUP2 MSTORE PUSH1 0x20 ADD SWAP1 DUP2 MSTORE PUSH1 0x20 ADD PUSH1 0x0 KECCAK256 SLOAD LT ISZERO PUSH2 0x1029 JUMPI PUSH1 0x40 MLOAD PUSH32 0x8C379A000000000000000000000000000000000000000000000000000000000 DUP2 MSTORE PUSH1 0x4 ADD PUSH2 0x1020 SWAP1 PUSH2 0x1C1C JUMP JUMPDEST PUSH1 0x40 MLOAD DUP1 SWAP2 SUB SWAP1 REVERT JUMPDEST DUP1 PUSH1 0x4 PUSH1 0x0 DUP6 PUSH20 0xFFFFFFFFFFFFFFFFFFFFFFFFFFFFFFFFFFFFFFFF AND PUSH20 0xFFFFFFFFFFFFFFFFFFFFFFFFFFFFFFFFFFFFFFFF AND DUP2 MSTORE PUSH1 0x20 ADD SWAP1 DUP2 MSTORE PUSH1 0x20 ADD PUSH1 0x0 KECCAK256 SLOAD PUSH2 0x1074 SWAP2 SWAP1 PUSH2 0x185C JUMP JUMPDEST PUSH1 0x4 PUSH1 0x0 DUP6 PUSH20 0xFFFFFFFFFFFFFFFFFFFFFFFFFFFFFFFFFFFFFFFF AND PUSH20 0xFFFFFFFFFFFFFFFFFFFFFFFFFFFFFFFFFFFFFFFF AND DUP2 MSTORE PUSH1 0x20 ADD SWAP1 DUP2 MSTORE PUSH1 0x20 ADD PUSH1 0x0 KECCAK256 DUP2 SWAP1 SSTORE POP DUP1 PUSH1 0x4 PUSH1 0x0 DUP5 PUSH20 0xFFFFFFFFFFFFFFFFFFFFFFFFFFFFFFFFFFFFFFFF AND PUSH20 0xFFFFFFFFFFFFFFFFFFFFFFFFFFFFFFFFFFFFFFFF AND DUP2 MSTORE PUSH1 0x20 ADD SWAP1 DUP2 MSTORE PUSH1 0x20 ADD PUSH1 0x0 KECCAK256 PUSH1 0x0 DUP3 DUP3 SLOAD PUSH2 0x1106 SWAP2 SWAP1 PUSH2 0x1C3C JUMP JUMPDEST SWAP3 POP POP DUP2 SWAP1 SSTORE POP DUP2 PUSH20 0xFFFFFFFFFFFFFFFFFFFFFFFFFFFFFFFFFFFFFFFF AND DUP4 PUSH20 0xFFFFFFFFFFFFFFFFFFFFFFFFFFFFFFFFFFFFFFFF AND PUSH32 0xDDF252AD1BE2C89B69C2B068FC378DAA952BA7F163C4A11628F55A4DF523B3EF DUP4 PUSH1 0x40 MLOAD PUSH2 0x116A SWAP2 SWAP1 PUSH2 0x14E0 JUMP JUMPDEST PUSH1 0x40 MLOAD DUP1 SWAP2 SUB SWAP1 LOG3 POP POP POP JUMP JUMPDEST POP POP POP JUMP JUMPDEST PUSH1 0x0 PUSH20 0xFFFFFFFFFFFFFFFFFFFFFFFFFFFFFFFFFFFFFFFF AND DUP3 PUSH20 0xFFFFFFFFFFFFFFFFFFFFFFFFFFFFFFFFFFFFFFFF AND EQ ISZERO PUSH2 0x11EC JUMPI PUSH1 0x40 MLOAD PUSH32 0x8C379A000000000000000000000000000000000000000000000000000000000 DUP2 MSTORE PUSH1 0x4 ADD PUSH2 0x11E3 SWAP1 PUSH2 0x1CDE JUMP JUMPDEST PUSH1 0x40 MLOAD DUP1 SWAP2 SUB SWAP1 REVERT JUMPDEST PUSH1 0x0 DUP2 GT PUSH2 0x122F JUMPI PUSH1 0x40 MLOAD PUSH32 0x8C379A000000000000000000000000000000000000000000000000000000000 DUP2 MSTORE PUSH1 0x4 ADD PUSH2 0x1226 SWAP1 PUSH2 0x1D4A JUMP JUMPDEST PUSH1 0x40 MLOAD DUP1 SWAP2 SUB SWAP1 REVERT JUMPDEST DUP1 PUSH1 0x0 DUP1 DUP3 DUP3 SLOAD PUSH2 0x1240 SWAP2 SWAP1 PUSH2 0x1C3C JUMP JUMPDEST SWAP3 POP POP DUP2 SWAP1 SSTORE POP DUP1 PUSH1 0x4 PUSH1 0x0 DUP5 PUSH20 0xFFFFFFFFFFFFFFFFFFFFFFFFFFFFFFFFFFFFFFFF AND PUSH20 0xFFFFFFFFFFFFFFFFFFFFFFFFFFFFFFFFFFFFFFFF AND DUP2 MSTORE PUSH1 0x20 ADD SWAP1 DUP2 MSTORE PUSH1 0x20 ADD PUSH1 0x0 KECCAK256 PUSH1 0x0 DUP3 DUP3 SLOAD PUSH2 0x1296 SWAP2 SWAP1 PUSH2 0x1C3C JUMP JUMPDEST SWAP3 POP POP DUP2 SWAP1 SSTORE POP DUP2 PUSH20 0xFFFFFFFFFFFFFFFFFFFFFFFFFFFFFFFFFFFFFFFF AND PUSH1 0x0 PUSH20 0xFFFFFFFFFFFFFFFFFFFFFFFFFFFFFFFFFFFFFFFF AND PUSH32 0xDDF252AD1BE2C89B69C2B068FC378DAA952BA7F163C4A11628F55A4DF523B3EF DUP4 PUSH1 0x40 MLOAD PUSH2 0x12FB SWAP2 SWAP1 PUSH2 0x14E0 JUMP JUMPDEST PUSH1 0x40 MLOAD DUP1 SWAP2 SUB SWAP1 LOG3 POP POP JUMP JUMPDEST PUSH1 0x0 DUP2 MLOAD SWAP1 POP SWAP2 SWAP1 POP JUMP JUMPDEST PUSH1 0x0 DUP3 DUP3 MSTORE PUSH1 0x20 DUP3 ADD SWAP1 POP SWAP3 SWAP2 POP POP JUMP JUMPDEST PUSH1 0x0 JUMPDEST DUP4 DUP2 LT ISZERO PUSH2 0x1341 JUMPI DUP1 DUP3 ADD MLOAD DUP2 DUP5 ADD MSTORE PUSH1 0x20 DUP2 ADD SWAP1 POP PUSH2 0x1326 JUMP JUMPDEST DUP4 DUP2 GT ISZERO PUSH2 0x1350 JUMPI PUSH1 0x0 DUP5 DUP5 ADD MSTORE JUMPDEST POP POP POP POP JUMP JUMPDEST PUSH1 0x0 PUSH1 0x1F NOT PUSH1 0x1F DUP4 ADD AND SWAP1 POP SWAP2 SWAP1 POP JUMP JUMPDEST PUSH1 0x0 PUSH2 0x1372 DUP3 PUSH2 0x1307 JUMP JUMPDEST PUSH2 0x137C DUP2 DUP6 PUSH2 0x1312 JUMP JUMPDEST SWAP4 POP PUSH2 0x138C DUP2 DUP6 PUSH1 0x20 DUP7 ADD PUSH2 0x1323 JUMP JUMPDEST PUSH2 0x1395 DUP2 PUSH2 0x1356 JUMP JUMPDEST DUP5 ADD SWAP2 POP POP SWAP3 SWAP2 POP POP JUMP JUMPDEST PUSH1 0x0 PUSH1 0x20 DUP3 ADD SWAP1 POP DUP2 DUP2 SUB PUSH1 0x0 DUP4 ADD MSTORE PUSH2 0x13BA DUP2 DUP5 PUSH2 0x1367 JUMP JUMPDEST SWAP1 POP SWAP3 SWAP2 POP POP JUMP JUMPDEST PUSH1 0x0 DUP1 REVERT JUMPDEST PUSH1 0x0 PUSH20 0xFFFFFFFFFFFFFFFFFFFFFFFFFFFFFFFFFFFFFFFF DUP3 AND SWAP1 POP SWAP2 SWAP1 POP JUMP JUMPDEST PUSH1 0x0 PUSH2 0x13F2 DUP3 PUSH2 0x13C7 JUMP JUMPDEST SWAP1 POP SWAP2 SWAP1 POP JUMP JUMPDEST PUSH2 0x1402 DUP2 PUSH2 0x13E7 JUMP JUMPDEST DUP2 EQ PUSH2 0x140D JUMPI PUSH1 0x0 DUP1 REVERT JUMPDEST POP JUMP JUMPDEST PUSH1 0x0 DUP2 CALLDATALOAD SWAP1 POP PUSH2 0x141F DUP2 PUSH2 0x13F9 JUMP JUMPDEST SWAP3 SWAP2 POP POP JUMP JUMPDEST PUSH1 0x0 DUP2 SWAP1 POP SWAP2 SWAP1 POP JUMP JUMPDEST PUSH2 0x1438 DUP2 PUSH2 0x1425 JUMP JUMPDEST DUP2 EQ PUSH2 0x1443 JUMPI PUSH1 0x0 DUP1 REVERT JUMPDEST POP JUMP JUMPDEST PUSH1 0x0 DUP2 CALLDATALOAD SWAP1 POP PUSH2 0x1455 DUP2 PUSH2 0x142F JUMP JUMPDEST SWAP3 SWAP2 POP POP JUMP JUMPDEST PUSH1 0x0 DUP1 PUSH1 0x40 DUP4 DUP6 SUB SLT ISZERO PUSH2 0x1472 JUMPI PUSH2 0x1471 PUSH2 0x13C2 JUMP JUMPDEST JUMPDEST PUSH1 0x0 PUSH2 0x1480 DUP6 DUP3 DUP7 ADD PUSH2 0x1410 JUMP JUMPDEST SWAP3 POP POP PUSH1 0x20 PUSH2 0x1491 DUP6 DUP3 DUP7 ADD PUSH2 0x1446 JUMP JUMPDEST SWAP2 POP POP SWAP3 POP SWAP3 SWAP1 POP JUMP JUMPDEST PUSH1 0x0 DUP2 ISZERO ISZERO SWAP1 POP SWAP2 SWAP1 POP JUMP JUMPDEST PUSH2 0x14B0 DUP2 PUSH2 0x149B JUMP JUMPDEST DUP3 MSTORE POP POP JUMP JUMPDEST PUSH1 0x0 PUSH1 0x20 DUP3 ADD SWAP1 POP PUSH2 0x14CB PUSH1 0x0 DUP4 ADD DUP5 PUSH2 0x14A7 JUMP JUMPDEST SWAP3 SWAP2 POP POP JUMP JUMPDEST PUSH2 0x14DA DUP2 PUSH2 0x1425 JUMP JUMPDEST DUP3 MSTORE POP POP JUMP JUMPDEST PUSH1 0x0 PUSH1 0x20 DUP3 ADD SWAP1 POP PUSH2 0x14F5 PUSH1 0x0 DUP4 ADD DUP5 PUSH2 0x14D1 JUMP JUMPDEST SWAP3 SWAP2 POP POP JUMP JUMPDEST PUSH1 0x0 DUP1 PUSH1 0x0 PUSH1 0x60 DUP5 DUP7 SUB SLT ISZERO PUSH2 0x1514 JUMPI PUSH2 0x1513 PUSH2 0x13C2 JUMP JUMPDEST JUMPDEST PUSH1 0x0 PUSH2 0x1522 DUP7 DUP3 DUP8 ADD PUSH2 0x1410 JUMP JUMPDEST SWAP4 POP POP PUSH1 0x20 PUSH2 0x1533 DUP7 DUP3 DUP8 ADD PUSH2 0x1410 JUMP JUMPDEST SWAP3 POP POP PUSH1 0x40 PUSH2 0x1544 DUP7 DUP3 DUP8 ADD PUSH2 0x1446 JUMP JUMPDEST SWAP2 POP POP SWAP3 POP SWAP3 POP SWAP3 JUMP JUMPDEST PUSH1 0x0 PUSH1 0xFF DUP3 AND SWAP1 POP SWAP2 SWAP1 POP JUMP JUMPDEST PUSH2 0x1564 DUP2 PUSH2 0x154E JUMP JUMPDEST DUP3 MSTORE POP POP JUMP JUMPDEST PUSH1 0x0 PUSH1 0x20 DUP3 ADD SWAP1 POP PUSH2 0x157F PUSH1 0x0 DUP4 ADD DUP5 PUSH2 0x155B JUMP JUMPDEST SWAP3 SWAP2 POP POP JUMP JUMPDEST PUSH1 0x0 PUSH1 0x20 DUP3 DUP5 SUB SLT ISZERO PUSH2 0x159B JUMPI PUSH2 0x159A PUSH2 0x13C2 JUMP JUMPDEST JUMPDEST PUSH1 0x0 PUSH2 0x15A9 DUP5 DUP3 DUP6 ADD PUSH2 0x1410 JUMP JUMPDEST SWAP2 POP POP SWAP3 SWAP2 POP POP JUMP JUMPDEST PUSH2 0x15BB DUP2 PUSH2 0x13E7 JUMP JUMPDEST DUP3 MSTORE POP POP JUMP JUMPDEST PUSH1 0x0 PUSH1 0x20 DUP3 ADD SWAP1 POP PUSH2 0x15D6 PUSH1 0x0 DUP4 ADD DUP5 PUSH2 0x15B2 JUMP JUMPDEST SWAP3 SWAP2 POP POP JUMP JUMPDEST PUSH1 0x0 DUP1 PUSH1 0x40 DUP4 DUP6 SUB SLT ISZERO PUSH2 0x15F3 JUMPI PUSH2 0x15F2 PUSH2 0x13C2 JUMP JUMPDEST JUMPDEST PUSH1 0x0 PUSH2 0x1601 DUP6 DUP3 DUP7 ADD PUSH2 0x1410 JUMP JUMPDEST SWAP3 POP POP PUSH1 0x20 PUSH2 0x1612 DUP6 DUP3 DUP7 ADD PUSH2 0x1410 JUMP JUMPDEST SWAP2 POP POP SWAP3 POP SWAP3 SWAP1 POP JUMP JUMPDEST PUSH32 0x4E487B7100000000000000000000000000000000000000000000000000000000 PUSH1 0x0 MSTORE PUSH1 0x22 PUSH1 0x4 MSTORE PUSH1 0x24 PUSH1 0x0 REVERT JUMPDEST PUSH1 0x0 PUSH1 0x2 DUP3 DIV SWAP1 POP PUSH1 0x1 DUP3 AND DUP1 PUSH2 0x1663 JUMPI PUSH1 0x7F DUP3 AND SWAP2 POP JUMPDEST PUSH1 0x20 DUP3 LT DUP2 EQ ISZERO PUSH2 0x1677 JUMPI PUSH2 0x1676 PUSH2 0x161C JUMP JUMPDEST JUMPDEST POP SWAP2 SWAP1 POP JUMP JUMPDEST PUSH32 0x617070726F766520746F20746865207A65726F20616464726573732E00000000 PUSH1 0x0 DUP3 ADD MSTORE POP JUMP JUMPDEST PUSH1 0x0 PUSH2 0x16B3 PUSH1 0x1C DUP4 PUSH2 0x1312 JUMP JUMPDEST SWAP2 POP PUSH2 0x16BE DUP3 PUSH2 0x167D JUMP JUMPDEST PUSH1 0x20 DUP3 ADD SWAP1 POP SWAP2 SWAP1 POP JUMP JUMPDEST PUSH1 0x0 PUSH1 0x20 DUP3 ADD SWAP1 POP DUP2 DUP2 SUB PUSH1 0x0 DUP4 ADD MSTORE PUSH2 0x16E2 DUP2 PUSH2 0x16A6 JUMP JUMPDEST SWAP1 POP SWAP2 SWAP1 POP JUMP JUMPDEST PUSH32 0x617070726F766520746F2073616D6520616464726573732E0000000000000000 PUSH1 0x0 DUP3 ADD MSTORE POP JUMP JUMPDEST PUSH1 0x0 PUSH2 0x171F PUSH1 0x18 DUP4 PUSH2 0x1312 JUMP JUMPDEST SWAP2 POP PUSH2 0x172A DUP3 PUSH2 0x16E9 JUMP JUMPDEST PUSH1 0x20 DUP3 ADD SWAP1 POP SWAP2 SWAP1 POP JUMP JUMPDEST PUSH1 0x0 PUSH1 0x20 DUP3 ADD SWAP1 POP DUP2 DUP2 SUB PUSH1 0x0 DUP4 ADD MSTORE PUSH2 0x174E DUP2 PUSH2 0x1712 JUMP JUMPDEST SWAP1 POP SWAP2 SWAP1 POP JUMP JUMPDEST PUSH32 0x617070726F766520616D6F756E74206973207A65726F2E000000000000000000 PUSH1 0x0 DUP3 ADD MSTORE POP JUMP JUMPDEST PUSH1 0x0 PUSH2 0x178B PUSH1 0x17 DUP4 PUSH2 0x1312 JUMP JUMPDEST SWAP2 POP PUSH2 0x1796 DUP3 PUSH2 0x1755 JUMP JUMPDEST PUSH1 0x20 DUP3 ADD SWAP1 POP SWAP2 SWAP1 POP JUMP JUMPDEST PUSH1 0x0 PUSH1 0x20 DUP3 ADD SWAP1 POP DUP2 DUP2 SUB PUSH1 0x0 DUP4 ADD MSTORE PUSH2 0x17BA DUP2 PUSH2 0x177E JUMP JUMPDEST SWAP1 POP SWAP2 SWAP1 POP JUMP JUMPDEST PUSH32 0x696E73756666696369656E7420616C6C6F77616E63652E000000000000000000 PUSH1 0x0 DUP3 ADD MSTORE POP JUMP JUMPDEST PUSH1 0x0 PUSH2 0x17F7 PUSH1 0x17 DUP4 PUSH2 0x1312 JUMP JUMPDEST SWAP2 POP PUSH2 0x1802 DUP3 PUSH2 0x17C1 JUMP JUMPDEST PUSH1 0x20 DUP3 ADD SWAP1 POP SWAP2 SWAP1 POP JUMP JUMPDEST PUSH1 0x0 PUSH1 0x20 DUP3 ADD SWAP1 POP DUP2 DUP2 SUB PUSH1 0x0 DUP4 ADD MSTORE PUSH2 0x1826 DUP2 PUSH2 0x17EA JUMP JUMPDEST SWAP1 POP SWAP2 SWAP1 POP JUMP JUMPDEST PUSH32 0x4E487B7100000000000000000000000000000000000000000000000000000000 PUSH1 0x0 MSTORE PUSH1 0x11 PUSH1 0x4 MSTORE PUSH1 0x24 PUSH1 0x0 REVERT JUMPDEST PUSH1 0x0 PUSH2 0x1867 DUP3 PUSH2 0x1425 JUMP JUMPDEST SWAP2 POP PUSH2 0x1872 DUP4 PUSH2 0x1425 JUMP JUMPDEST SWAP3 POP DUP3 DUP3 LT ISZERO PUSH2 0x1885 JUMPI PUSH2 0x1884 PUSH2 0x182D JUMP JUMPDEST JUMPDEST DUP3 DUP3 SUB SWAP1 POP SWAP3 SWAP2 POP POP JUMP JUMPDEST PUSH32 0x4F776E61626C653A2063616C6C6572206973206E6F7420746865206F776E6572 PUSH1 0x0 DUP3 ADD MSTORE PUSH32 0x2E00000000000000000000000000000000000000000000000000000000000000 PUSH1 0x20 DUP3 ADD MSTORE POP JUMP JUMPDEST PUSH1 0x0 PUSH2 0x18EC PUSH1 0x21 DUP4 PUSH2 0x1312 JUMP JUMPDEST SWAP2 POP PUSH2 0x18F7 DUP3 PUSH2 0x1890 JUMP JUMPDEST PUSH1 0x40 DUP3 ADD SWAP1 POP SWAP2 SWAP1 POP JUMP JUMPDEST PUSH1 0x0 PUSH1 0x20 DUP3 ADD SWAP1 POP DUP2 DUP2 SUB PUSH1 0x0 DUP4 ADD MSTORE PUSH2 0x191B DUP2 PUSH2 0x18DF JUMP JUMPDEST SWAP1 POP SWAP2 SWAP1 POP JUMP JUMPDEST PUSH32 0x4F776E61626C653A206E6577206F776E657220697320746865207A65726F2061 PUSH1 0x0 DUP3 ADD MSTORE PUSH32 0x6464726573730000000000000000000000000000000000000000000000000000 PUSH1 0x20 DUP3 ADD MSTORE POP JUMP JUMPDEST PUSH1 0x0 PUSH2 0x197E PUSH1 0x26 DUP4 PUSH2 0x1312 JUMP JUMPDEST SWAP2 POP PUSH2 0x1989 DUP3 PUSH2 0x1922 JUMP JUMPDEST PUSH1 0x40 DUP3 ADD SWAP1 POP SWAP2 SWAP1 POP JUMP JUMPDEST PUSH1 0x0 PUSH1 0x20 DUP3 ADD SWAP1 POP DUP2 DUP2 SUB PUSH1 0x0 DUP4 ADD MSTORE PUSH2 0x19AD DUP2 PUSH2 0x1971 JUMP JUMPDEST SWAP1 POP SWAP2 SWAP1 POP JUMP JUMPDEST PUSH32 0x636F6E7472616374206973207061757365642E00000000000000000000000000 PUSH1 0x0 DUP3 ADD MSTORE POP JUMP JUMPDEST PUSH1 0x0 PUSH2 0x19EA PUSH1 0x13 DUP4 PUSH2 0x1312 JUMP JUMPDEST SWAP2 POP PUSH2 0x19F5 DUP3 PUSH2 0x19B4 JUMP JUMPDEST PUSH1 0x20 DUP3 ADD SWAP1 POP SWAP2 SWAP1 POP JUMP JUMPDEST PUSH1 0x0 PUSH1 0x20 DUP3 ADD SWAP1 POP DUP2 DUP2 SUB PUSH1 0x0 DUP4 ADD MSTORE PUSH2 0x1A19 DUP2 PUSH2 0x19DD JUMP JUMPDEST SWAP1 POP SWAP2 SWAP1 POP JUMP JUMPDEST PUSH32 0x7472616E736665722066726F6D20746865207A65726F20616464726573732E00 PUSH1 0x0 DUP3 ADD MSTORE POP JUMP JUMPDEST PUSH1 0x0 PUSH2 0x1A56 PUSH1 0x1F DUP4 PUSH2 0x1312 JUMP JUMPDEST SWAP2 POP PUSH2 0x1A61 DUP3 PUSH2 0x1A20 JUMP JUMPDEST PUSH1 0x20 DUP3 ADD SWAP1 POP SWAP2 SWAP1 POP JUMP JUMPDEST PUSH1 0x0 PUSH1 0x20 DUP3 ADD SWAP1 POP DUP2 DUP2 SUB PUSH1 0x0 DUP4 ADD MSTORE PUSH2 0x1A85 DUP2 PUSH2 0x1A49 JUMP JUMPDEST SWAP1 POP SWAP2 SWAP1 POP JUMP JUMPDEST PUSH32 0x7472616E7366657220746F20746865207A65726F20616464726573732E000000 PUSH1 0x0 DUP3 ADD MSTORE POP JUMP JUMPDEST PUSH1 0x0 PUSH2 0x1AC2 PUSH1 0x1D DUP4 PUSH2 0x1312 JUMP JUMPDEST SWAP2 POP PUSH2 0x1ACD DUP3 PUSH2 0x1A8C JUMP JUMPDEST PUSH1 0x20 DUP3 ADD SWAP1 POP SWAP2 SWAP1 POP JUMP JUMPDEST PUSH1 0x0 PUSH1 0x20 DUP3 ADD SWAP1 POP DUP2 DUP2 SUB PUSH1 0x0 DUP4 ADD MSTORE PUSH2 0x1AF1 DUP2 PUSH2 0x1AB5 JUMP JUMPDEST SWAP1 POP SWAP2 SWAP1 POP JUMP JUMPDEST PUSH32 0x7472616E7366657220746F2073616D6520616464726573732E00000000000000 PUSH1 0x0 DUP3 ADD MSTORE POP JUMP JUMPDEST PUSH1 0x0 PUSH2 0x1B2E PUSH1 0x19 DUP4 PUSH2 0x1312 JUMP JUMPDEST SWAP2 POP PUSH2 0x1B39 DUP3 PUSH2 0x1AF8 JUMP JUMPDEST PUSH1 0x20 DUP3 ADD SWAP1 POP SWAP2 SWAP1 POP JUMP JUMPDEST PUSH1 0x0 PUSH1 0x20 DUP3 ADD SWAP1 POP DUP2 DUP2 SUB PUSH1 0x0 DUP4 ADD MSTORE PUSH2 0x1B5D DUP2 PUSH2 0x1B21 JUMP JUMPDEST SWAP1 POP SWAP2 SWAP1 POP JUMP JUMPDEST PUSH32 0x7472616E7366657220616D6F756E74206973207A65726F2E0000000000000000 PUSH1 0x0 DUP3 ADD MSTORE POP JUMP JUMPDEST PUSH1 0x0 PUSH2 0x1B9A PUSH1 0x18 DUP4 PUSH2 0x1312 JUMP JUMPDEST SWAP2 POP PUSH2 0x1BA5 DUP3 PUSH2 0x1B64 JUMP JUMPDEST PUSH1 0x20 DUP3 ADD SWAP1 POP SWAP2 SWAP1 POP JUMP JUMPDEST PUSH1 0x0 PUSH1 0x20 DUP3 ADD SWAP1 POP DUP2 DUP2 SUB PUSH1 0x0 DUP4 ADD MSTORE PUSH2 0x1BC9 DUP2 PUSH2 0x1B8D JUMP JUMPDEST SWAP1 POP SWAP2 SWAP1 POP JUMP JUMPDEST PUSH32 0x7472616E7366657220616D6F756E7420657863656564732062616C616E63652E PUSH1 0x0 DUP3 ADD MSTORE POP JUMP JUMPDEST PUSH1 0x0 PUSH2 0x1C06 PUSH1 0x20 DUP4 PUSH2 0x1312 JUMP JUMPDEST SWAP2 POP PUSH2 0x1C11 DUP3 PUSH2 0x1BD0 JUMP JUMPDEST PUSH1 0x20 DUP3 ADD SWAP1 POP SWAP2 SWAP1 POP JUMP JUMPDEST PUSH1 0x0 PUSH1 0x20 DUP3 ADD SWAP1 POP DUP2 DUP2 SUB PUSH1 0x0 DUP4 ADD MSTORE PUSH2 0x1C35 DUP2 PUSH2 0x1BF9 JUMP JUMPDEST SWAP1 POP SWAP2 SWAP1 POP JUMP JUMPDEST PUSH1 0x0 PUSH2 0x1C47 DUP3 PUSH2 0x1425 JUMP JUMPDEST SWAP2 POP PUSH2 0x1C52 DUP4 PUSH2 0x1425 JUMP JUMPDEST SWAP3 POP DUP3 PUSH32 0xFFFFFFFFFFFFFFFFFFFFFFFFFFFFFFFFFFFFFFFFFFFFFFFFFFFFFFFFFFFFFFFF SUB DUP3 GT ISZERO PUSH2 0x1C87 JUMPI PUSH2 0x1C86 PUSH2 0x182D JUMP JUMPDEST JUMPDEST DUP3 DUP3 ADD SWAP1 POP SWAP3 SWAP2 POP POP JUMP JUMPDEST PUSH32 0x6D696E7420746F20746865207A65726F20616464726573732E00000000000000 PUSH1 0x0 DUP3 ADD MSTORE POP JUMP JUMPDEST PUSH1 0x0 PUSH2 0x1CC8 PUSH1 0x19 DUP4 PUSH2 0x1312 JUMP JUMPDEST SWAP2 POP PUSH2 0x1CD3 DUP3 PUSH2 0x1C92 JUMP JUMPDEST PUSH1 0x20 DUP3 ADD SWAP1 POP SWAP2 SWAP1 POP JUMP JUMPDEST PUSH1 0x0 PUSH1 0x20 DUP3 ADD SWAP1 POP DUP2 DUP2 SUB PUSH1 0x0 DUP4 ADD MSTORE PUSH2 0x1CF7 DUP2 PUSH2 0x1CBB JUMP JUMPDEST SWAP1 POP SWAP2 SWAP1 POP JUMP JUMPDEST PUSH32 0x6D696E7420616D6F756E74206973207A65726F2E000000000000000000000000 PUSH1 0x0 DUP3 ADD MSTORE POP JUMP JUMPDEST PUSH1 0x0 PUSH2 0x1D34 PUSH1 0x14 DUP4 PUSH2 0x1312 JUMP JUMPDEST SWAP2 POP PUSH2 0x1D3F DUP3 PUSH2 0x1CFE JUMP JUMPDEST PUSH1 0x20 DUP3 ADD SWAP1 POP SWAP2 SWAP1 POP JUMP JUMPDEST PUSH1 0x0 PUSH1 0x20 DUP3 ADD SWAP1 POP DUP2 DUP2 SUB PUSH1 0x0 DUP4 ADD MSTORE PUSH2 0x1D63 DUP2 PUSH2 0x1D27 JUMP JUMPDEST SWAP1 POP SWAP2 SWAP1 POP JUMP INVALID LOG2 PUSH5 0x6970667358 0x22 SLT KECCAK256 0xA6 0xCC 0xAE 0xB9 DUP10 EXTCODEHASH SWAP13 0xED LOG4 DUP5 0xEB PUSH28 0xF7B346E652260814220353F03F2F6D687D0D366D64736F6C63430008 EXP STOP CALLER "
        },
        "gasEstimates": {
          "creation": {
            "codeDepositCost": "1516800",
            "executionCost": "infinite",
            "totalCost": "infinite"
          },
          "external": {
            "allowance(address,address)": "infinite",
            "approve(address,uint256)": "infinite",
            "balanceOf(address)": "2864",
            "decimals()": "2524",
            "mint(address,uint256)": "infinite",
            "name()": "infinite",
            "owner()": "2589",
            "pause()": "27836",
            "paused()": "2618",
            "symbol()": "infinite",
            "totalSupply()": "2505",
            "transfer(address,uint256)": "infinite",
            "transferFrom(address,address,uint256)": "infinite",
            "transferOwnership(address)": "30690",
            "unPause()": "27879"
          }
        },
        "methodIdentifiers": {
          "allowance(address,address)": "dd62ed3e",
          "approve(address,uint256)": "095ea7b3",
          "balanceOf(address)": "70a08231",
          "decimals()": "313ce567",
          "mint(address,uint256)": "40c10f19",
          "name()": "06fdde03",
          "owner()": "8da5cb5b",
          "pause()": "8456cb59",
          "paused()": "5c975abb",
          "symbol()": "95d89b41",
          "totalSupply()": "18160ddd",
          "transfer(address,uint256)": "a9059cbb",
          "transferFrom(address,address,uint256)": "23b872dd",
          "transferOwnership(address)": "f2fde38b",
          "unPause()": "f7b188a5"
        }
      },
      "storageLayout": {
        "storage": [
          {
            "astId": 108,
            "contract": "contracts/ERC20Mintable.sol:ERC20Mintable",
            "label": "_totalSupply",
            "offset": 0,
            "slot": "0",
            "type": "t_uint256"
          },
          {
            "astId": 110,
            "contract": "contracts/ERC20Mintable.sol:ERC20Mintable",
            "label": "_name",
            "offset": 0,
            "slot": "1",
            "type": "t_string_storage"
          },
          {
            "astId": 112,
            "contract": "contracts/ERC20Mintable.sol:ERC20Mintable",
            "label": "_symbol",
            "offset": 0,
            "slot": "2",
            "type": "t_string_storage"
          },
          {
            "astId": 114,
            "contract": "contracts/ERC20Mintable.sol:ERC20Mintable",
            "label": "_decimals",
            "offset": 0,
            "slot": "3",
            "type": "t_uint8"
          },
          {
            "astId": 118,
            "contract": "contracts/ERC20Mintable.sol:ERC20Mintable",
            "label": "_balances",
            "offset": 0,
            "slot": "4",
            "type": "t_mapping(t_address,t_uint256)"
          },
          {
            "astId": 124,
            "contract": "contracts/ERC20Mintable.sol:ERC20Mintable",
            "label": "_allowances",
            "offset": 0,
            "slot": "5",
            "type": "t_mapping(t_address,t_mapping(t_address,t_uint256))"
          },
          {
            "astId": 692,
            "contract": "contracts/ERC20Mintable.sol:ERC20Mintable",
            "label": "_owner",
            "offset": 0,
            "slot": "6",
            "type": "t_address"
          },
          {
            "astId": 763,
            "contract": "contracts/ERC20Mintable.sol:ERC20Mintable",
            "label": "_paused",
            "offset": 20,
            "slot": "6",
            "type": "t_bool"
          }
        ],
        "types": {
          "t_address": {
            "encoding": "inplace",
            "label": "address",
            "numberOfBytes": "20"
          },
          "t_bool": {
            "encoding": "inplace",
            "label": "bool",
            "numberOfBytes": "1"
          },
          "t_mapping(t_address,t_mapping(t_address,t_uint256))": {
            "encoding": "mapping",
            "key": "t_address",
            "label": "mapping(address => mapping(address => uint256))",
            "numberOfBytes": "32",
            "value": "t_mapping(t_address,t_uint256)"
          },
          "t_mapping(t_address,t_uint256)": {
            "encoding": "mapping",
            "key": "t_address",
            "label": "mapping(address => uint256)",
            "numberOfBytes": "32",
            "value": "t_uint256"
          },
          "t_string_storage": {
            "encoding": "bytes",
            "label": "string",
            "numberOfBytes": "32"
          },
          "t_uint256": {
            "encoding": "inplace",
            "label": "uint256",
            "numberOfBytes": "32"
          },
          "t_uint8": {
            "encoding": "inplace",
            "label": "uint8",
            "numberOfBytes": "1"
          }
        }
      },
      "userdoc": {
        "kind": "user",
        "methods": {},
        "version": 1
      }
    }
  }
}